{
  "contractName": "DevTokensHolder",
  "abi": [
    {
      "constant": false,
      "inputs": [],
      "name": "acceptOwnership",
      "outputs": [],
      "payable": false,
      "stateMutability": "nonpayable",
      "type": "function"
    },
    {
      "constant": false,
      "inputs": [],
      "name": "collectTokens",
      "outputs": [],
      "payable": false,
      "stateMutability": "nonpayable",
      "type": "function"
    },
    {
      "constant": true,
      "inputs": [],
      "name": "owner",
      "outputs": [
        {
          "name": "",
          "type": "address"
        }
      ],
      "payable": false,
      "stateMutability": "view",
      "type": "function"
    },
    {
      "constant": true,
      "inputs": [
        {
          "name": "_from",
          "type": "address"
        },
        {
          "name": "_value",
          "type": "uint256"
        },
        {
          "name": "_data",
          "type": "bytes"
        }
      ],
      "name": "tokenFallback",
      "outputs": [],
      "payable": false,
      "stateMutability": "view",
      "type": "function"
    },
    {
      "constant": true,
      "inputs": [],
      "name": "newOwnerCandidate",
      "outputs": [
        {
          "name": "",
          "type": "address"
        }
      ],
      "payable": false,
      "stateMutability": "view",
      "type": "function"
    },
    {
      "constant": false,
      "inputs": [
        {
          "name": "_token",
          "type": "address"
        }
      ],
      "name": "claimTokens",
      "outputs": [],
      "payable": false,
      "stateMutability": "nonpayable",
      "type": "function"
    },
    {
      "constant": false,
      "inputs": [
        {
          "name": "_newOwnerCandidate",
          "type": "address"
        }
      ],
      "name": "transferOwnership",
      "outputs": [],
      "payable": false,
      "stateMutability": "nonpayable",
      "type": "function"
    },
    {
      "inputs": [
        {
          "name": "_crowdsale",
          "type": "address"
        },
        {
          "name": "_token",
          "type": "address"
        },
        {
          "name": "_owner",
          "type": "address"
        }
      ],
      "payable": false,
      "stateMutability": "nonpayable",
      "type": "constructor"
    },
    {
      "anonymous": false,
      "inputs": [
        {
          "indexed": false,
          "name": "token",
          "type": "address"
        },
        {
          "indexed": false,
          "name": "amount",
          "type": "uint256"
        }
      ],
      "name": "ClaimedTokens",
      "type": "event"
    },
    {
      "anonymous": false,
      "inputs": [
        {
          "indexed": false,
          "name": "holder",
          "type": "address"
        },
        {
          "indexed": false,
          "name": "amount",
          "type": "uint256"
        }
      ],
      "name": "TokensWithdrawn",
      "type": "event"
    },
    {
      "anonymous": false,
      "inputs": [
        {
          "indexed": false,
          "name": "amount",
          "type": "uint256"
        }
      ],
      "name": "Debug",
      "type": "event"
    },
    {
      "anonymous": false,
      "inputs": [
        {
          "indexed": true,
          "name": "_by",
          "type": "address"
        },
        {
          "indexed": true,
          "name": "_to",
          "type": "address"
        }
      ],
      "name": "OwnershipRequested",
      "type": "event"
    },
    {
      "anonymous": false,
      "inputs": [
        {
          "indexed": true,
          "name": "_from",
          "type": "address"
        },
        {
          "indexed": true,
          "name": "_to",
          "type": "address"
        }
      ],
      "name": "OwnershipTransferred",
      "type": "event"
    }
  ],
  "bytecode": "0x6060604052341561000f57600080fd5b6040516060806110cb83398101604052808051906020019091908051906020019091908051906020019091905050336000806101000a81548173ffffffffffffffffffffffffffffffffffffffff021916908373ffffffffffffffffffffffffffffffffffffffff16021790555082600360006101000a81548173ffffffffffffffffffffffffffffffffffffffff021916908373ffffffffffffffffffffffffffffffffffffffff16021790555081600460006101000a81548173ffffffffffffffffffffffffffffffffffffffff021916908373ffffffffffffffffffffffffffffffffffffffff160217905550806000806101000a81548173ffffffffffffffffffffffffffffffffffffffff021916908373ffffffffffffffffffffffffffffffffffffffff160217905550505050610f7a806101516000396000f300606060405260043610610083576000357c0100000000000000000000000000000000000000000000000000000000900463ffffffff16806379ba5097146100885780638433acd11461009d5780638da5cb5b146100b2578063c0ee0b8a14610107578063d091b5501461018c578063df8de3e7146101e1578063f2fde38b1461021a575b600080fd5b341561009357600080fd5b61009b610253565b005b34156100a857600080fd5b6100b06103ed565b005b34156100bd57600080fd5b6100c5610855565b604051808273ffffffffffffffffffffffffffffffffffffffff1673ffffffffffffffffffffffffffffffffffffffff16815260200191505060405180910390f35b341561011257600080fd5b61018a600480803573ffffffffffffffffffffffffffffffffffffffff1690602001909190803590602001909190803590602001908201803590602001908080601f0160208091040260200160405190810160405280939291908181526020018383808284378201915050505050509190505061087a565b005b341561019757600080fd5b61019f610932565b604051808273ffffffffffffffffffffffffffffffffffffffff1673ffffffffffffffffffffffffffffffffffffffff16815260200191505060405180910390f35b34156101ec57600080fd5b610218600480803573ffffffffffffffffffffffffffffffffffffffff16906020019091905050610958565b005b341561022557600080fd5b610251600480803573ffffffffffffffffffffffffffffffffffffffff16906020019091905050610d4b565b005b600160009054906101000a900473ffffffffffffffffffffffffffffffffffffffff1673ffffffffffffffffffffffffffffffffffffffff163373ffffffffffffffffffffffffffffffffffffffff1614156103eb57600160009054906101000a900473ffffffffffffffffffffffffffffffffffffffff166000806101000a81548173ffffffffffffffffffffffffffffffffffffffff021916908373ffffffffffffffffffffffffffffffffffffffff1602179055506000600160006101000a81548173ffffffffffffffffffffffffffffffffffffffff021916908373ffffffffffffffffffffffffffffffffffffffff160217905550600160009054906101000a900473ffffffffffffffffffffffffffffffffffffffff1673ffffffffffffffffffffffffffffffffffffffff166000809054906101000a900473ffffffffffffffffffffffffffffffffffffffff1673ffffffffffffffffffffffffffffffffffffffff167f8be0079c531659141344cd1fd0a4f28419497f9722a3daafe3b4186f6b6457e060405160405180910390a35b565b6000806000806000809054906101000a900473ffffffffffffffffffffffffffffffffffffffff1673ffffffffffffffffffffffffffffffffffffffff163373ffffffffffffffffffffffffffffffffffffffff1614151561044e57600080fd5b600460009054906101000a900473ffffffffffffffffffffffffffffffffffffffff1673ffffffffffffffffffffffffffffffffffffffff166370a08231306000604051602001526040518263ffffffff167c0100000000000000000000000000000000000000000000000000000000028152600401808273ffffffffffffffffffffffffffffffffffffffff1673ffffffffffffffffffffffffffffffffffffffff168152602001915050602060405180830381600087803b151561051357600080fd5b6102c65a03f1151561052457600080fd5b50505060405180519050935061054584600254610ea290919063ffffffff16565b9250600360009054906101000a900473ffffffffffffffffffffffffffffffffffffffff1673ffffffffffffffffffffffffffffffffffffffff16635958611e6000604051602001526040518163ffffffff167c0100000000000000000000000000000000000000000000000000000000028152600401602060405180830381600087803b15156105d557600080fd5b6102c65a03f115156105e657600080fd5b50505060405180519050915060008211801561061d57506106136212750083610ea290919063ffffffff16565b61061b610ec0565b115b151561062857600080fd5b61066f610635600c610ec8565b61066161065285610644610ec0565b610ee790919063ffffffff16565b86610f0090919063ffffffff16565b610f3390919063ffffffff16565b905061068660025482610ee790919063ffffffff16565b905083811115610694578390505b6106a981600254610ea290919063ffffffff16565b600281905550600460009054906101000a900473ffffffffffffffffffffffffffffffffffffffff1673ffffffffffffffffffffffffffffffffffffffff1663a9059cbb6000809054906101000a900473ffffffffffffffffffffffffffffffffffffffff16836000604051602001526040518363ffffffff167c0100000000000000000000000000000000000000000000000000000000028152600401808373ffffffffffffffffffffffffffffffffffffffff1673ffffffffffffffffffffffffffffffffffffffff16815260200182815260200192505050602060405180830381600087803b151561079d57600080fd5b6102c65a03f115156107ae57600080fd5b5050506040518051905015156107c357600080fd5b7f6352c5382c4a4578e712449ca65e83cdb392d045dfcf1cad9615189db2da244b6000809054906101000a900473ffffffffffffffffffffffffffffffffffffffff1682604051808373ffffffffffffffffffffffffffffffffffffffff1673ffffffffffffffffffffffffffffffffffffffff1681526020018281526020019250505060405180910390a150505050565b6000809054906101000a900473ffffffffffffffffffffffffffffffffffffffff1681565b6000809054906101000a900473ffffffffffffffffffffffffffffffffffffffff1673ffffffffffffffffffffffffffffffffffffffff168373ffffffffffffffffffffffffffffffffffffffff1614806109225750600360009054906101000a900473ffffffffffffffffffffffffffffffffffffffff1673ffffffffffffffffffffffffffffffffffffffff168373ffffffffffffffffffffffffffffffffffffffff16145b151561092d57600080fd5b505050565b600160009054906101000a900473ffffffffffffffffffffffffffffffffffffffff1681565b60008060009054906101000a900473ffffffffffffffffffffffffffffffffffffffff1673ffffffffffffffffffffffffffffffffffffffff163373ffffffffffffffffffffffffffffffffffffffff161415156109b557600080fd5b600460009054906101000a900473ffffffffffffffffffffffffffffffffffffffff1673ffffffffffffffffffffffffffffffffffffffff168273ffffffffffffffffffffffffffffffffffffffff1614151515610a1257600080fd5b60008273ffffffffffffffffffffffffffffffffffffffff161415610aae576000809054906101000a900473ffffffffffffffffffffffffffffffffffffffff1673ffffffffffffffffffffffffffffffffffffffff166108fc3073ffffffffffffffffffffffffffffffffffffffff16319081150290604051600060405180830381858888f193505050501515610aa957600080fd5b610d47565b81600460006101000a81548173ffffffffffffffffffffffffffffffffffffffff021916908373ffffffffffffffffffffffffffffffffffffffff160217905550600460009054906101000a900473ffffffffffffffffffffffffffffffffffffffff1673ffffffffffffffffffffffffffffffffffffffff166370a08231306000604051602001526040518263ffffffff167c0100000000000000000000000000000000000000000000000000000000028152600401808273ffffffffffffffffffffffffffffffffffffffff1673ffffffffffffffffffffffffffffffffffffffff168152602001915050602060405180830381600087803b1515610bb457600080fd5b6102c65a03f11515610bc557600080fd5b505050604051805190509050600460009054906101000a900473ffffffffffffffffffffffffffffffffffffffff1673ffffffffffffffffffffffffffffffffffffffff1663a9059cbb6000809054906101000a900473ffffffffffffffffffffffffffffffffffffffff16836000604051602001526040518363ffffffff167c0100000000000000000000000000000000000000000000000000000000028152600401808373ffffffffffffffffffffffffffffffffffffffff1673ffffffffffffffffffffffffffffffffffffffff16815260200182815260200192505050602060405180830381600087803b1515610cbf57600080fd5b6102c65a03f11515610cd057600080fd5b50505060405180519050507fe9aa550fd75d0d28e07fa9dd67d3ae705678776f6c4a75abd09534f93e7d79078282604051808373ffffffffffffffffffffffffffffffffffffffff1673ffffffffffffffffffffffffffffffffffffffff1681526020018281526020019250505060405180910390a15b5050565b6000809054906101000a900473ffffffffffffffffffffffffffffffffffffffff1673ffffffffffffffffffffffffffffffffffffffff163373ffffffffffffffffffffffffffffffffffffffff16141515610da657600080fd5b600073ffffffffffffffffffffffffffffffffffffffff168173ffffffffffffffffffffffffffffffffffffffff1614151515610de257600080fd5b80600160006101000a81548173ffffffffffffffffffffffffffffffffffffffff021916908373ffffffffffffffffffffffffffffffffffffffff160217905550600160009054906101000a900473ffffffffffffffffffffffffffffffffffffffff1673ffffffffffffffffffffffffffffffffffffffff163373ffffffffffffffffffffffffffffffffffffffff167f13a4b3bc0d5234dd3d87c9f1557d8faefa37986da62c36ba49309e2fb2c9aec460405160405180910390a350565b6000808284019050838110151515610eb657fe5b8091505092915050565b600042905090565b6000610ee062278d0083610f0090919063ffffffff16565b9050919050565b6000828211151515610ef557fe5b818303905092915050565b60008082840290506000841480610f215750828482811515610f1e57fe5b04145b1515610f2957fe5b8091505092915050565b6000808284811515610f4157fe5b04905080915050929150505600a165627a7a7230582099fd7f3b1dea8080da94e3a630d4c61f733c8650e290dda4af2ede4444e1aed50029",
  "source": "pragma solidity ^0.4.18;\r\n\r\n\r\nimport \"./GenericCrowdsale.sol\";\r\nimport \"./MyDFSToken.sol\";\r\nimport './Ownable.sol';\r\nimport \"./SafeMath.sol\";\r\n\r\ncontract DevTokensHolder is Ownable {\r\n\tusing SafeMath for uint256;\r\n\r\n    uint256 collectedTokens;\r\n    GenericCrowdsale crowdsale;\r\n    MyDFSToken token;\r\n\r\n    event ClaimedTokens(address token, uint256 amount);\r\n    event TokensWithdrawn(address holder, uint256 amount);\r\n    event Debug(uint256 amount);\r\n\r\n    function DevTokensHolder(address _crowdsale, address _token, address _owner) public {\r\n        crowdsale = GenericCrowdsale(_crowdsale);\r\n        token = MyDFSToken(_token);\r\n        owner = _owner;\r\n    }\r\n\r\n    function tokenFallback(\r\n        address _from, \r\n        uint _value, \r\n        bytes _data\r\n    ) \r\n        public \r\n        view \r\n    {\r\n        require(_from == owner || _from == address(crowdsale));\r\n    }\r\n\r\n    /// @notice The Dev (Owner) will call this method to extract the tokens\r\n    function collectTokens() public onlyOwner {\r\n        uint256 balance = token.balanceOf(address(this));\r\n        uint256 total = collectedTokens.add(balance);\r\n\r\n        uint256 finalizedTime = crowdsale.finishTime();\r\n        require(finalizedTime > 0 && getTime() > finalizedTime.add(14 days));\r\n\r\n        uint256 canExtract = total.mul(getTime().sub(finalizedTime)).div(months(12));\r\n        canExtract = canExtract.sub(collectedTokens);\r\n\r\n        if (canExtract > balance) {\r\n            canExtract = balance;\r\n        }\r\n\r\n        collectedTokens = collectedTokens.add(canExtract);\r\n        require(token.transfer(owner, canExtract));\r\n        TokensWithdrawn(owner, canExtract);\r\n    }\r\n\r\n    function months(uint256 m) internal pure returns (uint256) {\r\n        return m.mul(30 days);\r\n    }\r\n\r\n    function getTime() internal view returns (uint256) {\r\n        return now;\r\n    }\r\n\r\n    //////////\r\n    // Safety Methods\r\n    //////////\r\n\r\n    /// @notice This method can be used by the controller to extract mistakenly\r\n    ///  sent tokens to this contract.\r\n    /// @param _token The address of the token contract that you want to recover\r\n    ///  set to 0 in case you want to extract ether.\r\n    function claimTokens(address _token) public onlyOwner {\r\n        require(_token != address(token));\r\n        if (_token == 0x0) {\r\n            owner.transfer(this.balance);\r\n            return;\r\n        }\r\n\r\n        token = MyDFSToken(_token);\r\n        uint256 balance = token.balanceOf(this);\r\n        token.transfer(owner, balance);\r\n        ClaimedTokens(_token, balance);\r\n    }\r\n}",
  "sourcePath": "C:\\www\\blockchain\\MyDFS\\contracts\\DevTokensHolder.sol",
  "compiler": {
    "name": "solc",
    "version": "0.4.18+commit.9cf6e910.Emscripten.clang"
  },
  "schemaVersion": "1.0.1",
  "updatedAt": "2018-03-12T10:58:24.452Z"
}