{
  "contractName": "Dispatcher",
  "abi": [
    {
      "constant": false,
      "inputs": [
        {
          "name": "_gameId",
          "type": "uint32"
        },
        {
          "name": "_teamId",
          "type": "uint32"
        },
        {
          "name": "_userId",
          "type": "uint32"
        },
        {
          "name": "_sponsorId",
          "type": "uint32"
        }
      ],
      "name": "participateGame",
      "outputs": [],
      "payable": false,
      "stateMutability": "nonpayable",
      "type": "function"
    },
    {
      "constant": false,
      "inputs": [
        {
          "name": "_gameId",
          "type": "uint32"
        },
        {
          "name": "_hash",
          "type": "bytes32"
        }
      ],
      "name": "startGame",
      "outputs": [],
      "payable": false,
      "stateMutability": "nonpayable",
      "type": "function"
    },
    {
      "constant": false,
      "inputs": [
        {
          "name": "_sum",
          "type": "uint64"
        }
      ],
      "name": "deposit",
      "outputs": [],
      "payable": false,
      "stateMutability": "nonpayable",
      "type": "function"
    },
    {
      "constant": true,
      "inputs": [
        {
          "name": "",
          "type": "uint32"
        }
      ],
      "name": "playersFee",
      "outputs": [
        {
          "name": "",
          "type": "uint8"
        }
      ],
      "payable": false,
      "stateMutability": "view",
      "type": "function"
    },
    {
      "constant": true,
      "inputs": [
        {
          "name": "",
          "type": "uint32"
        },
        {
          "name": "",
          "type": "uint48"
        }
      ],
      "name": "teams",
      "outputs": [
        {
          "name": "userId",
          "type": "uint32"
        },
        {
          "name": "sponsorId",
          "type": "uint32"
        },
        {
          "name": "prizeSum",
          "type": "uint64"
        }
      ],
      "payable": false,
      "stateMutability": "view",
      "type": "function"
    },
    {
      "constant": false,
      "inputs": [
        {
          "name": "_gameId",
          "type": "uint32"
        },
        {
          "name": "_hash",
          "type": "bytes32"
        }
      ],
      "name": "finishGame",
      "outputs": [],
      "payable": false,
      "stateMutability": "nonpayable",
      "type": "function"
    },
    {
      "constant": true,
      "inputs": [
        {
          "name": "_user",
          "type": "address"
        }
      ],
      "name": "balanceOf",
      "outputs": [
        {
          "name": "",
          "type": "uint64"
        }
      ],
      "payable": false,
      "stateMutability": "view",
      "type": "function"
    },
    {
      "constant": false,
      "inputs": [
        {
          "name": "_amount",
          "type": "uint64"
        }
      ],
      "name": "withdraw",
      "outputs": [],
      "payable": false,
      "stateMutability": "nonpayable",
      "type": "function"
    },
    {
      "constant": false,
      "inputs": [],
      "name": "acceptOwnership",
      "outputs": [],
      "payable": false,
      "stateMutability": "nonpayable",
      "type": "function"
    },
    {
      "constant": false,
      "inputs": [
        {
          "name": "_user",
          "type": "address"
        },
        {
          "name": "_id",
          "type": "uint32"
        }
      ],
      "name": "registerUser",
      "outputs": [],
      "payable": false,
      "stateMutability": "nonpayable",
      "type": "function"
    },
    {
      "constant": false,
      "inputs": [
        {
          "name": "_user",
          "type": "address"
        },
        {
          "name": "_amount",
          "type": "uint64"
        }
      ],
      "name": "systemWithdraw",
      "outputs": [],
      "payable": false,
      "stateMutability": "nonpayable",
      "type": "function"
    },
    {
      "constant": true,
      "inputs": [],
      "name": "owner",
      "outputs": [
        {
          "name": "",
          "type": "address"
        }
      ],
      "payable": false,
      "stateMutability": "view",
      "type": "function"
    },
    {
      "constant": false,
      "inputs": [
        {
          "name": "_gameId",
          "type": "uint32"
        },
        {
          "name": "_entryFee",
          "type": "uint64"
        },
        {
          "name": "_serviceFee",
          "type": "uint32"
        },
        {
          "name": "_registrationDueDate",
          "type": "uint32"
        }
      ],
      "name": "createGame",
      "outputs": [],
      "payable": false,
      "stateMutability": "nonpayable",
      "type": "function"
    },
    {
      "constant": false,
      "inputs": [
        {
          "name": "_gameId",
          "type": "uint32"
        },
        {
          "name": "_teamIds",
          "type": "uint32[]"
        },
        {
          "name": "_teamPrizes",
          "type": "uint64[]"
        }
      ],
      "name": "winners",
      "outputs": [],
      "payable": false,
      "stateMutability": "nonpayable",
      "type": "function"
    },
    {
      "constant": true,
      "inputs": [
        {
          "name": "",
          "type": "address"
        }
      ],
      "name": "users",
      "outputs": [
        {
          "name": "",
          "type": "uint32"
        }
      ],
      "payable": false,
      "stateMutability": "view",
      "type": "function"
    },
    {
      "constant": false,
      "inputs": [
        {
          "name": "_from",
          "type": "address"
        },
        {
          "name": "_amount",
          "type": "uint256"
        },
        {
          "name": "_data",
          "type": "bytes"
        }
      ],
      "name": "tokenFallback",
      "outputs": [],
      "payable": false,
      "stateMutability": "nonpayable",
      "type": "function"
    },
    {
      "constant": true,
      "inputs": [],
      "name": "gameToken",
      "outputs": [
        {
          "name": "",
          "type": "address"
        }
      ],
      "payable": false,
      "stateMutability": "view",
      "type": "function"
    },
    {
      "constant": true,
      "inputs": [],
      "name": "newOwnerCandidate",
      "outputs": [
        {
          "name": "",
          "type": "address"
        }
      ],
      "payable": false,
      "stateMutability": "view",
      "type": "function"
    },
    {
      "constant": true,
      "inputs": [
        {
          "name": "",
          "type": "uint32"
        }
      ],
      "name": "games",
      "outputs": [
        {
          "name": "state",
          "type": "uint8"
        },
        {
          "name": "entryFee",
          "type": "uint64"
        },
        {
          "name": "serviceFee",
          "type": "uint32"
        },
        {
          "name": "registrationDueDate",
          "type": "uint32"
        },
        {
          "name": "teamsHash",
          "type": "bytes32"
        },
        {
          "name": "statsHash",
          "type": "bytes32"
        },
        {
          "name": "teamsNumber",
          "type": "uint32"
        },
        {
          "name": "awardSent",
          "type": "uint64"
        }
      ],
      "payable": false,
      "stateMutability": "view",
      "type": "function"
    },
    {
      "constant": true,
      "inputs": [
        {
          "name": "",
          "type": "uint32"
        }
      ],
      "name": "balances",
      "outputs": [
        {
          "name": "",
          "type": "uint64"
        }
      ],
      "payable": false,
      "stateMutability": "view",
      "type": "function"
    },
    {
      "constant": false,
      "inputs": [
        {
          "name": "_newOwnerCandidate",
          "type": "address"
        }
      ],
      "name": "transferOwnership",
      "outputs": [],
      "payable": false,
      "stateMutability": "nonpayable",
      "type": "function"
    },
    {
      "constant": false,
      "inputs": [
        {
          "name": "_gameId",
          "type": "uint32"
        }
      ],
      "name": "cancelGame",
      "outputs": [],
      "payable": false,
      "stateMutability": "nonpayable",
      "type": "function"
    },
    {
      "constant": false,
      "inputs": [
        {
          "name": "_gameId",
          "type": "uint32"
        },
        {
          "name": "_teamIds",
          "type": "uint32[]"
        }
      ],
      "name": "refundCancelledGame",
      "outputs": [],
      "payable": false,
      "stateMutability": "nonpayable",
      "type": "function"
    },
    {
      "inputs": [
        {
          "name": "_gameTokenAddress",
          "type": "address"
        }
      ],
      "payable": false,
      "stateMutability": "nonpayable",
      "type": "constructor"
    },
    {
      "anonymous": false,
      "inputs": [
        {
          "indexed": false,
          "name": "_teamId",
          "type": "uint32"
        },
        {
          "indexed": false,
          "name": "_userId",
          "type": "uint32"
        },
        {
          "indexed": false,
          "name": "_sponsorId",
          "type": "uint32"
        },
        {
          "indexed": false,
          "name": "_gameId",
          "type": "uint32"
        }
      ],
      "name": "Participated",
      "type": "event"
    },
    {
      "anonymous": false,
      "inputs": [
        {
          "indexed": false,
          "name": "sum",
          "type": "uint256"
        }
      ],
      "name": "Debug",
      "type": "event"
    },
    {
      "anonymous": false,
      "inputs": [
        {
          "indexed": true,
          "name": "_by",
          "type": "address"
        },
        {
          "indexed": true,
          "name": "_to",
          "type": "address"
        }
      ],
      "name": "OwnershipRequested",
      "type": "event"
    },
    {
      "anonymous": false,
      "inputs": [
        {
          "indexed": true,
          "name": "_from",
          "type": "address"
        },
        {
          "indexed": true,
          "name": "_to",
          "type": "address"
        }
      ],
      "name": "OwnershipTransferred",
      "type": "event"
    }
  ],
  "bytecode": "0x6060604052341561000f57600080fd5b604051602080612d9783398101604052808051906020019091905050336000806101000a81548173ffffffffffffffffffffffffffffffffffffffff021916908373ffffffffffffffffffffffffffffffffffffffff16021790555060008173ffffffffffffffffffffffffffffffffffffffff1611151561009057600080fd5b80600260006101000a81548173ffffffffffffffffffffffffffffffffffffffff021916908373ffffffffffffffffffffffffffffffffffffffff16021790555050612cb6806100e16000396000f300606060405260043610610132576000357c0100000000000000000000000000000000000000000000000000000000900463ffffffff1680621ee6b214610137578063134ff97e1461018d57806313765838146101c35780632368ecfc146101f05780632839a00d146102335780636339fbcb146102bb57806370a08231146102f1578063750f0acc1461035257806379ba50971461037f5780638331ae7314610394578063873bdee0146103dc5780638da5cb5b1461042857806398f2af3a1461047d578063998282e9146104d7578063a87430ba14610528578063c0ee0b8a14610581578063c3dfdae614610606578063d091b5501461065b578063da5d2fac146106b0578063e4e80ca614610788578063f2fde38b146107d9578063f8d420a114610812578063fcd583631461083b575b600080fd5b341561014257600080fd5b61018b600480803563ffffffff1690602001909190803563ffffffff1690602001909190803563ffffffff1690602001909190803563ffffffff16906020019091905050610878565b005b341561019857600080fd5b6101c1600480803563ffffffff1690602001909190803560001916906020019091905050610dbb565b005b34156101ce57600080fd5b6101ee600480803567ffffffffffffffff16906020019091905050610ecd565b005b34156101fb57600080fd5b610217600480803563ffffffff16906020019091905050611203565b604051808260ff1660ff16815260200191505060405180910390f35b341561023e57600080fd5b61026b600480803563ffffffff1690602001909190803565ffffffffffff16906020019091905050611223565b604051808463ffffffff1663ffffffff1681526020018363ffffffff1663ffffffff1681526020018267ffffffffffffffff1667ffffffffffffffff168152602001935050505060405180910390f35b34156102c657600080fd5b6102ef600480803563ffffffff169060200190919080356000191690602001909190505061128e565b005b34156102fc57600080fd5b610328600480803573ffffffffffffffffffffffffffffffffffffffff169060200190919050506113a0565b604051808267ffffffffffffffff1667ffffffffffffffff16815260200191505060405180910390f35b341561035d57600080fd5b61037d600480803567ffffffffffffffff1690602001909190505061142c565b005b341561038a57600080fd5b6103926116db565b005b341561039f57600080fd5b6103da600480803573ffffffffffffffffffffffffffffffffffffffff1690602001909190803563ffffffff16906020019091905050611875565b005b34156103e757600080fd5b610426600480803573ffffffffffffffffffffffffffffffffffffffff1690602001909190803567ffffffffffffffff169060200190919050506119dd565b005b341561043357600080fd5b61043b611caa565b604051808273ffffffffffffffffffffffffffffffffffffffff1673ffffffffffffffffffffffffffffffffffffffff16815260200191505060405180910390f35b341561048857600080fd5b6104d5600480803563ffffffff1690602001909190803567ffffffffffffffff1690602001909190803563ffffffff1690602001909190803563ffffffff16906020019091905050611ccf565b005b34156104e257600080fd5b610526600480803563ffffffff1690602001909190803590602001908201803590602001919091929080359060200190820180359060200191909192905050611f76565b005b341561053357600080fd5b61055f600480803573ffffffffffffffffffffffffffffffffffffffff1690602001909190505061247b565b604051808263ffffffff1663ffffffff16815260200191505060405180910390f35b341561058c57600080fd5b610604600480803573ffffffffffffffffffffffffffffffffffffffff1690602001909190803590602001909190803590602001908201803590602001908080601f0160208091040260200160405190810160405280939291908181526020018383808284378201915050505050509190505061249e565b005b341561061157600080fd5b6106196125c1565b604051808273ffffffffffffffffffffffffffffffffffffffff1673ffffffffffffffffffffffffffffffffffffffff16815260200191505060405180910390f35b341561066657600080fd5b61066e6125e7565b604051808273ffffffffffffffffffffffffffffffffffffffff1673ffffffffffffffffffffffffffffffffffffffff16815260200191505060405180910390f35b34156106bb57600080fd5b6106d7600480803563ffffffff1690602001909190505061260d565b604051808960038111156106e757fe5b60ff1681526020018867ffffffffffffffff1667ffffffffffffffff1681526020018763ffffffff1663ffffffff1681526020018663ffffffff1663ffffffff168152602001856000191660001916815260200184600019166000191681526020018363ffffffff1663ffffffff1681526020018267ffffffffffffffff1667ffffffffffffffff1681526020019850505050505050505060405180910390f35b341561079357600080fd5b6107af600480803563ffffffff169060200190919050506126ba565b604051808267ffffffffffffffff1667ffffffffffffffff16815260200191505060405180910390f35b34156107e457600080fd5b610810600480803573ffffffffffffffffffffffffffffffffffffffff169060200190919050506126e1565b005b341561081d57600080fd5b610839600480803563ffffffff16906020019091905050612838565b005b341561084657600080fd5b610876600480803563ffffffff169060200190919080359060200190820180359060200191909192905050612928565b005b60008060009054906101000a900473ffffffffffffffffffffffffffffffffffffffff1673ffffffffffffffffffffffffffffffffffffffff163373ffffffffffffffffffffffffffffffffffffffff161415156108d557600080fd5b600760008663ffffffff1663ffffffff168152602001908152602001600020905060008563ffffffff1611801561093357506000600381111561091457fe5b8160000160009054906101000a900460ff16600381111561093157fe5b145b8015610945575060008463ffffffff16115b8015610957575060008363ffffffff16115b80156109ba57506000600660008763ffffffff1663ffffffff16815260200190815260200160002060008663ffffffff1665ffffffffffff16815260200190815260200160002060000160009054906101000a900463ffffffff1663ffffffff16145b80156109e557504263ffffffff1681600001600d9054906101000a900463ffffffff1663ffffffff16115b15156109f057600080fd5b60008263ffffffff161115610b05578060000160019054906101000a900467ffffffffffffffff1667ffffffffffffffff16600460008463ffffffff1663ffffffff16815260200190815260200160002060009054906101000a900467ffffffffffffffff1667ffffffffffffffff1610151515610a6d57600080fd5b8060000160019054906101000a900467ffffffffffffffff16600460008463ffffffff1663ffffffff16815260200190815260200160002060009054906101000a900467ffffffffffffffff1603600460008463ffffffff1663ffffffff16815260200190815260200160002060006101000a81548167ffffffffffffffff021916908367ffffffffffffffff160217905550610c07565b8060000160019054906101000a900467ffffffffffffffff1667ffffffffffffffff16600460008563ffffffff1663ffffffff16815260200190815260200160002060009054906101000a900467ffffffffffffffff1667ffffffffffffffff1610151515610b7357600080fd5b8060000160019054906101000a900467ffffffffffffffff16600460008563ffffffff1663ffffffff16815260200190815260200160002060009054906101000a900467ffffffffffffffff1603600460008563ffffffff1663ffffffff16815260200190815260200160002060006101000a81548167ffffffffffffffff021916908367ffffffffffffffff1602179055505b6060604051908101604052808463ffffffff1681526020018363ffffffff168152602001600067ffffffffffffffff16815250600660008763ffffffff1663ffffffff16815260200190815260200160002060008663ffffffff1665ffffffffffff16815260200190815260200160002060008201518160000160006101000a81548163ffffffff021916908363ffffffff16021790555060208201518160000160046101000a81548163ffffffff021916908363ffffffff16021790555060408201518160000160086101000a81548167ffffffffffffffff021916908367ffffffffffffffff16021790555090505080600301600081819054906101000a900463ffffffff168092919060010191906101000a81548163ffffffff021916908363ffffffff160217905550507fa03a2729e17b6199b249ef9b977778ba171ed8bb38d853015e5d1d21ae44f45e84848488604051808563ffffffff1663ffffffff1681526020018463ffffffff1663ffffffff1681526020018363ffffffff1663ffffffff1681526020018263ffffffff1663ffffffff16815260200194505050505060405180910390a15050505050565b60008060009054906101000a900473ffffffffffffffffffffffffffffffffffffffff1673ffffffffffffffffffffffffffffffffffffffff163373ffffffffffffffffffffffffffffffffffffffff16141515610e1857600080fd5b600760008463ffffffff1663ffffffff168152602001908152602001600020905060006003811115610e4657fe5b8160000160009054906101000a900460ff166003811115610e6357fe5b148015610e76575060008363ffffffff16115b8015610e8a57506000600102826000191614155b1515610e9557600080fd5b8181600101816000191690555060018160000160006101000a81548160ff02191690836003811115610ec357fe5b0217905550505050565b8067ffffffffffffffff16600260009054906101000a900473ffffffffffffffffffffffffffffffffffffffff1673ffffffffffffffffffffffffffffffffffffffff166370a08231336000604051602001526040518263ffffffff167c0100000000000000000000000000000000000000000000000000000000028152600401808273ffffffffffffffffffffffffffffffffffffffff1673ffffffffffffffffffffffffffffffffffffffff168152602001915050602060405180830381600087803b1515610f9d57600080fd5b6102c65a03f11515610fae57600080fd5b505050604051805190501015801561101b57506000600360003373ffffffffffffffffffffffffffffffffffffffff1673ffffffffffffffffffffffffffffffffffffffff16815260200190815260200160002060009054906101000a900463ffffffff1663ffffffff16115b151561102657600080fd5b600260009054906101000a900473ffffffffffffffffffffffffffffffffffffffff1673ffffffffffffffffffffffffffffffffffffffff166323b872dd3330846000604051602001526040518463ffffffff167c0100000000000000000000000000000000000000000000000000000000028152600401808473ffffffffffffffffffffffffffffffffffffffff1673ffffffffffffffffffffffffffffffffffffffff1681526020018373ffffffffffffffffffffffffffffffffffffffff1673ffffffffffffffffffffffffffffffffffffffff1681526020018267ffffffffffffffff1681526020019350505050602060405180830381600087803b151561113157600080fd5b6102c65a03f1151561114257600080fd5b5050506040518051905015611200578060046000600360003373ffffffffffffffffffffffffffffffffffffffff1673ffffffffffffffffffffffffffffffffffffffff16815260200190815260200160002060009054906101000a900463ffffffff1663ffffffff1663ffffffff16815260200190815260200160002060008282829054906101000a900467ffffffffffffffff160192506101000a81548167ffffffffffffffff021916908367ffffffffffffffff1602179055505b50565b60056020528060005260406000206000915054906101000a900460ff1681565b6006602052816000526040600020602052806000526040600020600091509150508060000160009054906101000a900463ffffffff16908060000160049054906101000a900463ffffffff16908060000160089054906101000a900467ffffffffffffffff16905083565b60008060009054906101000a900473ffffffffffffffffffffffffffffffffffffffff1673ffffffffffffffffffffffffffffffffffffffff163373ffffffffffffffffffffffffffffffffffffffff161415156112eb57600080fd5b600760008463ffffffff1663ffffffff168152602001908152602001600020905060008363ffffffff1611801561134957506002600381111561132a57fe5b8160000160009054906101000a900460ff16600381111561134757fe5b105b801561135d57506000600102826000191614155b151561136857600080fd5b8181600201816000191690555060028160000160006101000a81548160ff0219169083600381111561139657fe5b0217905550505050565b600060046000600360008573ffffffffffffffffffffffffffffffffffffffff1673ffffffffffffffffffffffffffffffffffffffff16815260200190815260200160002060009054906101000a900463ffffffff1663ffffffff1663ffffffff16815260200190815260200160002060009054906101000a900467ffffffffffffffff169050919050565b6000600360003373ffffffffffffffffffffffffffffffffffffffff1673ffffffffffffffffffffffffffffffffffffffff16815260200190815260200160002060009054906101000a900463ffffffff1663ffffffff1611801561152757508067ffffffffffffffff1660046000600360003373ffffffffffffffffffffffffffffffffffffffff1673ffffffffffffffffffffffffffffffffffffffff16815260200190815260200160002060009054906101000a900463ffffffff1663ffffffff1663ffffffff16815260200190815260200160002060009054906101000a900467ffffffffffffffff1667ffffffffffffffff1610155b151561153257600080fd5b600260009054906101000a900473ffffffffffffffffffffffffffffffffffffffff1673ffffffffffffffffffffffffffffffffffffffff1663a9059cbb33836000604051602001526040518363ffffffff167c0100000000000000000000000000000000000000000000000000000000028152600401808373ffffffffffffffffffffffffffffffffffffffff1673ffffffffffffffffffffffffffffffffffffffff1681526020018267ffffffffffffffff16815260200192505050602060405180830381600087803b151561160957600080fd5b6102c65a03f1151561161a57600080fd5b50505060405180519050156116d8578060046000600360003373ffffffffffffffffffffffffffffffffffffffff1673ffffffffffffffffffffffffffffffffffffffff16815260200190815260200160002060009054906101000a900463ffffffff1663ffffffff1663ffffffff16815260200190815260200160002060008282829054906101000a900467ffffffffffffffff160392506101000a81548167ffffffffffffffff021916908367ffffffffffffffff1602179055505b50565b600160009054906101000a900473ffffffffffffffffffffffffffffffffffffffff1673ffffffffffffffffffffffffffffffffffffffff163373ffffffffffffffffffffffffffffffffffffffff16141561187357600160009054906101000a900473ffffffffffffffffffffffffffffffffffffffff166000806101000a81548173ffffffffffffffffffffffffffffffffffffffff021916908373ffffffffffffffffffffffffffffffffffffffff1602179055506000600160006101000a81548173ffffffffffffffffffffffffffffffffffffffff021916908373ffffffffffffffffffffffffffffffffffffffff160217905550600160009054906101000a900473ffffffffffffffffffffffffffffffffffffffff1673ffffffffffffffffffffffffffffffffffffffff166000809054906101000a900473ffffffffffffffffffffffffffffffffffffffff1673ffffffffffffffffffffffffffffffffffffffff167f8be0079c531659141344cd1fd0a4f28419497f9722a3daafe3b4186f6b6457e060405160405180910390a35b565b6000809054906101000a900473ffffffffffffffffffffffffffffffffffffffff1673ffffffffffffffffffffffffffffffffffffffff163373ffffffffffffffffffffffffffffffffffffffff161415156118d057600080fd5b6000600360008473ffffffffffffffffffffffffffffffffffffffff1673ffffffffffffffffffffffffffffffffffffffff16815260200190815260200160002060009054906101000a900463ffffffff1663ffffffff1614151561193457600080fd5b80600360008473ffffffffffffffffffffffffffffffffffffffff1673ffffffffffffffffffffffffffffffffffffffff16815260200190815260200160002060006101000a81548163ffffffff021916908363ffffffff1602179055506000600460008363ffffffff1663ffffffff16815260200190815260200160002060006101000a81548167ffffffffffffffff021916908367ffffffffffffffff1602179055505050565b6000809054906101000a900473ffffffffffffffffffffffffffffffffffffffff1673ffffffffffffffffffffffffffffffffffffffff163373ffffffffffffffffffffffffffffffffffffffff16141515611a3857600080fd5b60008273ffffffffffffffffffffffffffffffffffffffff1614158015611af557508067ffffffffffffffff1660046000600360008673ffffffffffffffffffffffffffffffffffffffff1673ffffffffffffffffffffffffffffffffffffffff16815260200190815260200160002060009054906101000a900463ffffffff1663ffffffff1663ffffffff16815260200190815260200160002060009054906101000a900467ffffffffffffffff1667ffffffffffffffff1610155b1515611b0057600080fd5b600260009054906101000a900473ffffffffffffffffffffffffffffffffffffffff1673ffffffffffffffffffffffffffffffffffffffff1663a9059cbb83836000604051602001526040518363ffffffff167c0100000000000000000000000000000000000000000000000000000000028152600401808373ffffffffffffffffffffffffffffffffffffffff1673ffffffffffffffffffffffffffffffffffffffff1681526020018267ffffffffffffffff16815260200192505050602060405180830381600087803b1515611bd757600080fd5b6102c65a03f11515611be857600080fd5b5050506040518051905015611ca6578060046000600360008673ffffffffffffffffffffffffffffffffffffffff1673ffffffffffffffffffffffffffffffffffffffff16815260200190815260200160002060009054906101000a900463ffffffff1663ffffffff1663ffffffff16815260200190815260200160002060008282829054906101000a900467ffffffffffffffff160392506101000a81548167ffffffffffffffff021916908367ffffffffffffffff1602179055505b5050565b6000809054906101000a900473ffffffffffffffffffffffffffffffffffffffff1681565b6000809054906101000a900473ffffffffffffffffffffffffffffffffffffffff1673ffffffffffffffffffffffffffffffffffffffff163373ffffffffffffffffffffffffffffffffffffffff16141515611d2a57600080fd5b6000600760008663ffffffff1663ffffffff16815260200190815260200160002060000160019054906101000a900467ffffffffffffffff1667ffffffffffffffff16148015611d80575060008463ffffffff16115b8015611d96575060008367ffffffffffffffff16115b8015611da8575060008163ffffffff16115b1515611db357600080fd5b6101006040519081016040528060006003811115611dcd57fe5b81526020018467ffffffffffffffff1681526020018363ffffffff1681526020018263ffffffff16815260200160006001026000191681526020016000600102600019168152602001600063ffffffff168152602001600067ffffffffffffffff16815250600760008663ffffffff1663ffffffff16815260200190815260200160002060008201518160000160006101000a81548160ff02191690836003811115611e7557fe5b021790555060208201518160000160016101000a81548167ffffffffffffffff021916908367ffffffffffffffff16021790555060408201518160000160096101000a81548163ffffffff021916908363ffffffff160217905550606082015181600001600d6101000a81548163ffffffff021916908363ffffffff1602179055506080820151816001019060001916905560a0820151816002019060001916905560c08201518160030160006101000a81548163ffffffff021916908363ffffffff16021790555060e08201518160030160046101000a81548167ffffffffffffffff021916908367ffffffffffffffff16021790555090505050505050565b60008060008060008060008060009054906101000a900473ffffffffffffffffffffffffffffffffffffffff1673ffffffffffffffffffffffffffffffffffffffff163373ffffffffffffffffffffffffffffffffffffffff16141515611fdc57600080fd5b600760008d63ffffffff1663ffffffff16815260200190815260200160002096506002600381111561200a57fe5b8760000160009054906101000a900460ff16600381111561202757fe5b14151561203357600080fd5b60009550600094505b888890508563ffffffff1610156120835788888663ffffffff16818110151561206157fe5b9050602002013567ffffffffffffffff1686019550848060010195505061203c565b8660030160009054906101000a900463ffffffff1663ffffffff168760000160019054906101000a900467ffffffffffffffff160267ffffffffffffffff168760030160049054906101000a900467ffffffffffffffff16870167ffffffffffffffff16111515156120f457600080fd5b600094505b8a8a90508563ffffffff16101561246d578a8a8663ffffffff16818110151561211e57fe5b9050602002013563ffffffff169350600660008d63ffffffff1663ffffffff16815260200190815260200160002060008563ffffffff1665ffffffffffff16815260200190815260200160002092508260000160009054906101000a900463ffffffff16915060008360000160089054906101000a900467ffffffffffffffff1667ffffffffffffffff1614156124605760008360000160049054906101000a900463ffffffff1663ffffffff16111561238c576064600560008463ffffffff1663ffffffff16815260200190815260200160002060009054906101000a900460ff1660ff168a8a8863ffffffff16818110151561221857fe5b9050602002013567ffffffffffffffff160267ffffffffffffffff1681151561223d57fe5b04905080600460008463ffffffff1663ffffffff16815260200190815260200160002060008282829054906101000a900467ffffffffffffffff160192506101000a81548167ffffffffffffffff021916908367ffffffffffffffff1602179055508089898763ffffffff1681811015156122b457fe5b9050602002013567ffffffffffffffff1603600460008560000160049054906101000a900463ffffffff1663ffffffff1663ffffffff16815260200190815260200160002060008282829054906101000a900467ffffffffffffffff160192506101000a81548167ffffffffffffffff021916908367ffffffffffffffff16021790555088888663ffffffff16818110151561234c57fe5b9050602002013567ffffffffffffffff168360000160086101000a81548167ffffffffffffffff021916908367ffffffffffffffff16021790555061245f565b88888663ffffffff1681811015156123a057fe5b9050602002013567ffffffffffffffff16600460008463ffffffff1663ffffffff16815260200190815260200160002060008282829054906101000a900467ffffffffffffffff160192506101000a81548167ffffffffffffffff021916908367ffffffffffffffff16021790555088888663ffffffff16818110151561242357fe5b9050602002013567ffffffffffffffff168360000160086101000a81548167ffffffffffffffff021916908367ffffffffffffffff1602179055505b5b84806001019550506120f9565b505050505050505050505050565b60036020528060005260406000206000915054906101000a900463ffffffff1681565b6000600360008573ffffffffffffffffffffffffffffffffffffffff1673ffffffffffffffffffffffffffffffffffffffff16815260200190815260200160002060009054906101000a900463ffffffff1663ffffffff161180612503575060008151115b151561250e57600080fd5b8160046000600360008773ffffffffffffffffffffffffffffffffffffffff1673ffffffffffffffffffffffffffffffffffffffff16815260200190815260200160002060009054906101000a900463ffffffff1663ffffffff1663ffffffff16815260200190815260200160002060008282829054906101000a900467ffffffffffffffff160192506101000a81548167ffffffffffffffff021916908367ffffffffffffffff160217905550505050565b600260009054906101000a900473ffffffffffffffffffffffffffffffffffffffff1681565b600160009054906101000a900473ffffffffffffffffffffffffffffffffffffffff1681565b60076020528060005260406000206000915090508060000160009054906101000a900460ff16908060000160019054906101000a900467ffffffffffffffff16908060000160099054906101000a900463ffffffff169080600001600d9054906101000a900463ffffffff16908060010154908060020154908060030160009054906101000a900463ffffffff16908060030160049054906101000a900467ffffffffffffffff16905088565b60046020528060005260406000206000915054906101000a900467ffffffffffffffff1681565b6000809054906101000a900473ffffffffffffffffffffffffffffffffffffffff1673ffffffffffffffffffffffffffffffffffffffff163373ffffffffffffffffffffffffffffffffffffffff1614151561273c57600080fd5b600073ffffffffffffffffffffffffffffffffffffffff168173ffffffffffffffffffffffffffffffffffffffff161415151561277857600080fd5b80600160006101000a81548173ffffffffffffffffffffffffffffffffffffffff021916908373ffffffffffffffffffffffffffffffffffffffff160217905550600160009054906101000a900473ffffffffffffffffffffffffffffffffffffffff1673ffffffffffffffffffffffffffffffffffffffff163373ffffffffffffffffffffffffffffffffffffffff167f13a4b3bc0d5234dd3d87c9f1557d8faefa37986da62c36ba49309e2fb2c9aec460405160405180910390a350565b60008060009054906101000a900473ffffffffffffffffffffffffffffffffffffffff1673ffffffffffffffffffffffffffffffffffffffff163373ffffffffffffffffffffffffffffffffffffffff1614151561289557600080fd5b600760008363ffffffff1663ffffffff168152602001908152602001600020905060008263ffffffff161180156128f35750600260038111156128d457fe5b8160000160009054906101000a900460ff1660038111156128f157fe5b105b15156128fe57600080fd5b60038160000160006101000a81548160ff0219169083600381111561291f57fe5b02179055505050565b6000806000806000809054906101000a900473ffffffffffffffffffffffffffffffffffffffff1673ffffffffffffffffffffffffffffffffffffffff163373ffffffffffffffffffffffffffffffffffffffff1614151561298957600080fd5b600760008863ffffffff1663ffffffff16815260200190815260200160002093506003808111156129b657fe5b8460000160009054906101000a900460ff1660038111156129d357fe5b1415156129df57600080fd5b600092505b858590508363ffffffff161015612c815785858463ffffffff168181101515612a0957fe5b9050602002013563ffffffff169150600660008863ffffffff1663ffffffff16815260200190815260200160002060008363ffffffff1665ffffffffffff16815260200190815260200160002090506000600660008963ffffffff1663ffffffff16815260200190815260200160002060008463ffffffff1665ffffffffffff16815260200190815260200160002060000160089054906101000a900467ffffffffffffffff1667ffffffffffffffff16141515612ac657600080fd5b60008160000160089054906101000a900467ffffffffffffffff1667ffffffffffffffff161415612c745760008160000160049054906101000a900463ffffffff1663ffffffff161115612ba4578360000160019054906101000a900467ffffffffffffffff16600460008360000160049054906101000a900463ffffffff1663ffffffff1663ffffffff16815260200190815260200160002060008282829054906101000a900467ffffffffffffffff160192506101000a81548167ffffffffffffffff021916908367ffffffffffffffff160217905550612c30565b8360000160019054906101000a900467ffffffffffffffff16600460008360000160009054906101000a900463ffffffff1663ffffffff1663ffffffff16815260200190815260200160002060008282829054906101000a900467ffffffffffffffff160192506101000a81548167ffffffffffffffff021916908367ffffffffffffffff1602179055505b8360000160019054906101000a900467ffffffffffffffff168160000160086101000a81548167ffffffffffffffff021916908367ffffffffffffffff1602179055505b82806001019350506129e4565b505050505050505600a165627a7a72305820d3a144c7f724c5251e94faa7ac385843fe09320a207f248c242a0d1891516a5e0029",
  "source": "pragma solidity ^0.4.18;\r\n\r\nimport './Ownable.sol';\r\nimport './MyDFSToken.sol';\r\n\r\ncontract Dispatcher is Ownable {\r\n\r\n\tenum GameState { Initialized, Started, Finished, Cancelled }\r\n\r\n\tstruct GameTeam {\r\n\t\tuint32 userId;\r\n\t\tuint32 sponsorId;\r\n\t\tuint64 prizeSum;\r\n\t}\r\n\r\n\tstruct Game {\r\n\t\tGameState state;\r\n\t\tuint64 entryFee;\r\n\t\tuint32 serviceFee;\r\n\t\tuint32 registrationDueDate;\r\n\r\n\t\tbytes32 teamsHash;\r\n\t\tbytes32 statsHash;\r\n\r\n\t\tuint32 teamsNumber;\r\n\t\tuint64 awardSent;\r\n\t}\r\n\r\n\tMyDFSToken public gameToken;\r\n\r\n\t/** player ids (store optimisation) **/\r\n\tmapping (address => uint32) public users;\r\n\t/** player balances **/\r\n\tmapping (uint32 => uint64) public balances;\r\n\t/** invesor fees **/\r\n\tmapping (uint32 => uint8) public playersFee;\r\n\t/** player teams **/\r\n\tmapping (uint32 => mapping (uint48 => GameTeam)) public teams;\r\n\t/** games **/\r\n\tmapping (uint32 => Game) public games;\r\n\r\n\t/** service reward can be withdraw by owners **/\r\n\tuint serviceReward;\r\n\r\n\tevent Participated(uint32 _teamId, uint32 _userId, uint32 _sponsorId, uint32 _gameId);\r\n\tevent Debug(uint sum);\r\n\r\n    /**\r\n     * Constrctor function\r\n     */\r\n\tfunction Dispatcher(address _gameTokenAddress) public {\r\n\t\trequire(_gameTokenAddress > 0);\r\n\t\tgameToken = MyDFSToken(_gameTokenAddress);\r\n\t}\r\n\r\n    /**\r\n     * Register user\r\n     */\r\n\tfunction registerUser(address _user, uint32 _id) external onlyOwner {\r\n\t\trequire(users[_user] == 0);\r\n\t\tusers[_user] = _id;\r\n\t\tbalances[_id] = 0;\r\n\t}\r\n\r\n\t/**\r\n     * Create new game\r\n     */\r\n\tfunction createGame(\r\n\t\tuint32 _gameId,\r\n\t\tuint64 _entryFee,\r\n\t\tuint32 _serviceFee,\r\n\t\tuint32 _registrationDueDate\r\n\t) \r\n\t\texternal\r\n\t\tonlyOwner\r\n\t{\r\n\t\trequire(\r\n\t\t\tgames[_gameId].entryFee == 0\r\n\t\t\t&& _gameId > 0\r\n\t\t\t&& _entryFee > 0\r\n\t\t\t&& _registrationDueDate > 0\r\n\t\t);\r\n\t\tgames[_gameId] = Game(GameState.Initialized, _entryFee, _serviceFee, _registrationDueDate, 0x0, 0x0, 0, 0);\r\n\t}\r\n\r\n\t/**\r\n     * Participate game\r\n     */\r\n\tfunction participateGame(\r\n\t\tuint32 _gameId,\r\n\t\tuint32 _teamId, \r\n\t\tuint32 _userId, \r\n\t\tuint32 _sponsorId\r\n\t) \r\n\t\texternal \r\n\t\tonlyOwner \r\n\t{\r\n\t\tGame storage game = games[_gameId];\r\n\t\trequire(\r\n\t\t\t_gameId > 0\r\n\t\t\t&& game.state == GameState.Initialized\r\n\t\t\t&& _teamId > 0\r\n\t\t\t&& _userId > 0\r\n\t\t\t&& teams[_gameId][_teamId].userId == 0\r\n\t\t\t&& game.registrationDueDate > uint32(now)\r\n\t\t);\r\n\r\n\t\tif (_sponsorId > 0) {\r\n\t\t\trequire(balances[_sponsorId] >= game.entryFee);\r\n\t\t\tbalances[_sponsorId] = balances[_sponsorId] - game.entryFee;\r\n\t\t}\r\n\t\telse {\r\n\t\t\trequire(balances[_userId] >= game.entryFee);\r\n\t\t\tbalances[_userId] = balances[_userId] - game.entryFee;\r\n\t\t}\r\n\r\n\t\tteams[_gameId][_teamId] = GameTeam(_userId, _sponsorId, 0);\r\n\t\tgame.teamsNumber++;\r\n\t\tParticipated(_teamId, _userId, _sponsorId, _gameId);\r\n\t}\r\n\r\n\t/**\r\n     * Stop participate game, store teams hash\r\n     */\r\n\tfunction startGame(uint32 _gameId, bytes32 _hash) external onlyOwner {\r\n\t\tGame storage game = games[_gameId];\r\n\t\trequire(\r\n\t\t\tgame.state == GameState.Initialized\r\n\t\t\t&& _gameId > 0\r\n\t\t\t&& _hash != 0x0\r\n\t\t);\r\n\t\t\r\n\t\tgame.teamsHash = _hash;\r\n\t\tgame.state = GameState.Started;\r\n\t}\r\n\r\n\t/**\r\n     * Cancel game\r\n     */\r\n\tfunction cancelGame(uint32 _gameId)\texternal onlyOwner {\r\n\t\tGame storage game = games[_gameId];\r\n\t\trequire(\r\n\t\t\t_gameId > 0\r\n\t\t\t&& game.state < GameState.Finished\r\n\t\t);\r\n\t\tgame.state = GameState.Cancelled;\r\n\t}\r\n\r\n\t/**\r\n     * Finish game, store stats hash\r\n     */\r\n\tfunction finishGame(uint32 _gameId, bytes32 _hash) external onlyOwner {\r\n\t\tGame storage game = games[_gameId];\r\n\t\trequire(\r\n\t\t\t_gameId > 0\r\n\t\t\t&& game.state < GameState.Finished\r\n\t\t\t&& _hash != 0x0\r\n\t\t);\r\n\t\tgame.statsHash = _hash;\r\n\t\tgame.state = GameState.Finished;\r\n\t}\r\n\r\n\t/**\r\n     * Reward winners\r\n     */\r\n\tfunction winners(uint32 _gameId, uint32[] _teamIds, uint64[] _teamPrizes) external onlyOwner {\r\n\t\tGame storage game = games[_gameId];\r\n\t\trequire(game.state == GameState.Finished);\r\n\r\n\t\tuint64 sumPrize = 0;\r\n\t\tfor (uint32 i = 0; i < _teamPrizes.length; i++)\r\n\t\t\tsumPrize += _teamPrizes[i];\r\n\r\n\t\trequire(uint(sumPrize + game.awardSent) <= uint(game.entryFee * game.teamsNumber));\r\n\r\n\t\tfor (i = 0; i < _teamIds.length; i++) {\r\n\t\t\tuint32 teamId = _teamIds[i];\r\n\t\t\tGameTeam storage team = teams[_gameId][teamId];\r\n\t\t\tuint32 userId = team.userId;\r\n\r\n\t\t\tif (team.prizeSum == 0) {\r\n\t\t\t\tif (team.sponsorId > 0) {\r\n\t\t\t\t\tuint64 playerFee = _teamPrizes[i] * playersFee[userId] / 100;\r\n\t\t\t\t\tbalances[userId] += playerFee;\r\n\t\t\t\t\tbalances[team.sponsorId] += _teamPrizes[i] - playerFee;\r\n\t\t\t\t\tteam.prizeSum = _teamPrizes[i];\r\n\t\t\t\t} else {\r\n\t\t\t\t\tbalances[userId] += _teamPrizes[i];\r\n\t\t\t\t\tteam.prizeSum = _teamPrizes[i];\r\n\t\t\t\t}\r\n\t\t\t}\r\n\t\t}\r\n\t}\r\n\r\n\t/**\r\n     * Refund money for cancelled game\r\n     */\r\n\tfunction refundCancelledGame(uint32 _gameId, uint32[] _teamIds) external onlyOwner {\r\n\t\tGame storage game = games[_gameId];\r\n\t\trequire(game.state == GameState.Cancelled);\r\n\r\n\t\tfor (uint32 i = 0; i < _teamIds.length; i++) {\r\n\t\t\tuint32 teamId = _teamIds[i];\r\n\t\t\tGameTeam storage team = teams[_gameId][teamId];\r\n\r\n\t\t\trequire(teams[_gameId][teamId].prizeSum == 0);\r\n\r\n\t\t\tif (team.prizeSum == 0) {\r\n\t\t\t\tif (team.sponsorId > 0) {\r\n\t\t\t\t\tbalances[team.sponsorId] += game.entryFee;\r\n\t\t\t\t} else {\r\n\t\t\t\t\tbalances[team.userId] += game.entryFee;\r\n\t\t\t\t}\r\n\t\t\t\tteam.prizeSum = game.entryFee;\r\n\t\t\t}\r\n\t\t}\r\n\t}\r\n\r\n\t/**\r\n     * Deposits from user\r\n     */\r\n\tfunction tokenFallback(address _from, uint _amount, bytes _data) public {\r\n\t\trequire(\r\n\t\t\tusers[_from] > 0 || _data.length > 0\r\n\t\t);\r\n\t\tbalances[users[_from]] += uint64(_amount);\r\n\t}\r\n\r\n\t/**\r\n     * Deposits tokens in game\r\n     */\r\n\tfunction deposit(uint64 _sum) external {\r\n\t\trequire(\r\n\t\t\tgameToken.balanceOf(msg.sender) >= _sum\r\n\t\t\t&& users[msg.sender] > 0\r\n\t\t);\r\n\r\n\t\tif (gameToken.transferFrom(msg.sender, address(this), _sum))\r\n\t\t\tbalances[users[msg.sender]] += _sum;\t\t\r\n\t}\r\n\r\n\t/**\r\n     * User can withdraw tokens manually in any time\r\n     */\r\n\tfunction withdraw(uint64 _amount) external {\r\n\t\trequire(\r\n\t\t\tusers[msg.sender] > 0\r\n\t\t\t&& balances[users[msg.sender]] >= _amount\r\n\t\t);\r\n\r\n\t\tif (gameToken.transfer(msg.sender, _amount))\r\n\t\t\tbalances[users[msg.sender]] -= _amount;\r\n\t}\r\n\r\n\t/**\r\n     * User can withdraw tokens manually in any time\r\n     */\r\n\tfunction systemWithdraw(address _user, uint64 _amount) external onlyOwner {\r\n\t\trequire(\r\n\t\t\t_user != 0x0\r\n\t\t\t&& balances[users[_user]] >= _amount\r\n\t\t);\r\n\r\n\t\tif (gameToken.transfer(_user, _amount))\r\n\t\t\tbalances[users[_user]] -= _amount;\r\n\t}\r\n\r\n\t/**\r\n     * Check user balance\r\n     */\r\n\tfunction balanceOf(\r\n\t\taddress _user\r\n\t)\r\n\t\tpublic\r\n\t\tconstant\r\n\t\treturns (uint64)\r\n\t{\r\n\t\treturn balances[users[_user]];\r\n\t}\r\n}",
  "sourcePath": "C:\\www\\blockchain\\MyDFS\\contracts\\Dispatcher.sol",
  "compiler": {
    "name": "solc",
    "version": "0.4.18+commit.9cf6e910.Emscripten.clang"
  },
  "schemaVersion": "1.0.1",
  "updatedAt": "2018-03-12T10:58:24.440Z"
}