{
  "contractName": "GenericCrowdsale",
  "abi": [
    {
      "constant": true,
      "inputs": [],
      "name": "started",
      "outputs": [
        {
          "name": "",
          "type": "uint256"
        }
      ],
      "payable": false,
      "stateMutability": "view",
      "type": "function"
    },
    {
      "constant": false,
      "inputs": [
        {
          "name": "hardFundingGoalInEthers",
          "type": "uint256"
        },
        {
          "name": "minPurchaseInFinney",
          "type": "uint256"
        },
        {
          "name": "costOfEachToken",
          "type": "uint256"
        },
        {
          "name": "discountEthers",
          "type": "uint256[]"
        },
        {
          "name": "discountValues",
          "type": "uint256[]"
        }
      ],
      "name": "preIco",
      "outputs": [],
      "payable": false,
      "stateMutability": "nonpayable",
      "type": "function"
    },
    {
      "constant": true,
      "inputs": [
        {
          "name": "",
          "type": "address"
        }
      ],
      "name": "balances",
      "outputs": [
        {
          "name": "",
          "type": "uint256"
        }
      ],
      "payable": false,
      "stateMutability": "view",
      "type": "function"
    },
    {
      "constant": false,
      "inputs": [
        {
          "name": "softFundingGoalInEthers",
          "type": "uint256"
        },
        {
          "name": "hardFundingGoalInEthers",
          "type": "uint256"
        },
        {
          "name": "minPurchaseInFinney",
          "type": "uint256"
        },
        {
          "name": "costOfEachToken",
          "type": "uint256"
        },
        {
          "name": "discountEthers",
          "type": "uint256[]"
        },
        {
          "name": "discountValues",
          "type": "uint256[]"
        }
      ],
      "name": "ico",
      "outputs": [],
      "payable": false,
      "stateMutability": "nonpayable",
      "type": "function"
    },
    {
      "constant": false,
      "inputs": [],
      "name": "withdrawFunding",
      "outputs": [],
      "payable": false,
      "stateMutability": "nonpayable",
      "type": "function"
    },
    {
      "constant": true,
      "inputs": [],
      "name": "minPurchase",
      "outputs": [
        {
          "name": "",
          "type": "uint256"
        }
      ],
      "payable": false,
      "stateMutability": "view",
      "type": "function"
    },
    {
      "constant": true,
      "inputs": [],
      "name": "beneficiary",
      "outputs": [
        {
          "name": "",
          "type": "address"
        }
      ],
      "payable": false,
      "stateMutability": "view",
      "type": "function"
    },
    {
      "constant": true,
      "inputs": [
        {
          "name": "",
          "type": "uint256"
        }
      ],
      "name": "preIcoTokenPrice",
      "outputs": [
        {
          "name": "",
          "type": "uint8"
        }
      ],
      "payable": false,
      "stateMutability": "view",
      "type": "function"
    },
    {
      "constant": true,
      "inputs": [
        {
          "name": "",
          "type": "uint256"
        }
      ],
      "name": "icoTokenPrice",
      "outputs": [
        {
          "name": "",
          "type": "uint8"
        }
      ],
      "payable": false,
      "stateMutability": "view",
      "type": "function"
    },
    {
      "constant": false,
      "inputs": [],
      "name": "emergencyUnpause",
      "outputs": [],
      "payable": false,
      "stateMutability": "nonpayable",
      "type": "function"
    },
    {
      "constant": false,
      "inputs": [],
      "name": "emergencyPause",
      "outputs": [],
      "payable": false,
      "stateMutability": "nonpayable",
      "type": "function"
    },
    {
      "constant": false,
      "inputs": [
        {
          "name": "user",
          "type": "address"
        },
        {
          "name": "amount",
          "type": "uint256"
        }
      ],
      "name": "foreignPurchase",
      "outputs": [],
      "payable": false,
      "stateMutability": "nonpayable",
      "type": "function"
    },
    {
      "constant": true,
      "inputs": [],
      "name": "finishTime",
      "outputs": [
        {
          "name": "",
          "type": "uint256"
        }
      ],
      "payable": false,
      "stateMutability": "view",
      "type": "function"
    },
    {
      "constant": true,
      "inputs": [],
      "name": "devTokensHolder",
      "outputs": [
        {
          "name": "",
          "type": "address"
        }
      ],
      "payable": false,
      "stateMutability": "view",
      "type": "function"
    },
    {
      "constant": true,
      "inputs": [],
      "name": "tokenReward",
      "outputs": [
        {
          "name": "",
          "type": "address"
        }
      ],
      "payable": false,
      "stateMutability": "view",
      "type": "function"
    },
    {
      "constant": true,
      "inputs": [],
      "name": "advisorsTokensHolder",
      "outputs": [
        {
          "name": "",
          "type": "address"
        }
      ],
      "payable": false,
      "stateMutability": "view",
      "type": "function"
    },
    {
      "constant": false,
      "inputs": [],
      "name": "acceptOwnership",
      "outputs": [],
      "payable": false,
      "stateMutability": "nonpayable",
      "type": "function"
    },
    {
      "constant": true,
      "inputs": [],
      "name": "amountRaised",
      "outputs": [
        {
          "name": "",
          "type": "uint256"
        }
      ],
      "payable": false,
      "stateMutability": "view",
      "type": "function"
    },
    {
      "constant": true,
      "inputs": [],
      "name": "owner",
      "outputs": [
        {
          "name": "",
          "type": "address"
        }
      ],
      "payable": false,
      "stateMutability": "view",
      "type": "function"
    },
    {
      "constant": false,
      "inputs": [],
      "name": "finishSale",
      "outputs": [],
      "payable": false,
      "stateMutability": "nonpayable",
      "type": "function"
    },
    {
      "constant": false,
      "inputs": [],
      "name": "sendAdvisorsTokens",
      "outputs": [
        {
          "name": "",
          "type": "address"
        }
      ],
      "payable": false,
      "stateMutability": "nonpayable",
      "type": "function"
    },
    {
      "constant": true,
      "inputs": [],
      "name": "price",
      "outputs": [
        {
          "name": "",
          "type": "uint256"
        }
      ],
      "payable": false,
      "stateMutability": "view",
      "type": "function"
    },
    {
      "constant": true,
      "inputs": [],
      "name": "successed",
      "outputs": [
        {
          "name": "",
          "type": "bool"
        }
      ],
      "payable": false,
      "stateMutability": "view",
      "type": "function"
    },
    {
      "constant": false,
      "inputs": [],
      "name": "claimRefund",
      "outputs": [],
      "payable": false,
      "stateMutability": "nonpayable",
      "type": "function"
    },
    {
      "constant": true,
      "inputs": [
        {
          "name": "",
          "type": "uint256"
        }
      ],
      "name": "discounts",
      "outputs": [
        {
          "name": "amount",
          "type": "uint256"
        },
        {
          "name": "value",
          "type": "uint256"
        }
      ],
      "payable": false,
      "stateMutability": "view",
      "type": "function"
    },
    {
      "constant": true,
      "inputs": [
        {
          "name": "_from",
          "type": "address"
        },
        {
          "name": "_value",
          "type": "uint256"
        },
        {
          "name": "_data",
          "type": "bytes"
        }
      ],
      "name": "tokenFallback",
      "outputs": [],
      "payable": false,
      "stateMutability": "view",
      "type": "function"
    },
    {
      "constant": true,
      "inputs": [
        {
          "name": "_amount",
          "type": "uint256"
        }
      ],
      "name": "getDiscountOf",
      "outputs": [
        {
          "name": "",
          "type": "uint256"
        }
      ],
      "payable": false,
      "stateMutability": "view",
      "type": "function"
    },
    {
      "constant": true,
      "inputs": [],
      "name": "state",
      "outputs": [
        {
          "name": "",
          "type": "uint8"
        }
      ],
      "payable": false,
      "stateMutability": "view",
      "type": "function"
    },
    {
      "constant": false,
      "inputs": [],
      "name": "sendDevTokens",
      "outputs": [
        {
          "name": "",
          "type": "address"
        }
      ],
      "payable": false,
      "stateMutability": "nonpayable",
      "type": "function"
    },
    {
      "constant": true,
      "inputs": [],
      "name": "hardFundingGoal",
      "outputs": [
        {
          "name": "",
          "type": "uint256"
        }
      ],
      "payable": false,
      "stateMutability": "view",
      "type": "function"
    },
    {
      "constant": true,
      "inputs": [],
      "name": "newOwnerCandidate",
      "outputs": [
        {
          "name": "",
          "type": "address"
        }
      ],
      "payable": false,
      "stateMutability": "view",
      "type": "function"
    },
    {
      "constant": true,
      "inputs": [],
      "name": "softFundingGoal",
      "outputs": [
        {
          "name": "",
          "type": "uint256"
        }
      ],
      "payable": false,
      "stateMutability": "view",
      "type": "function"
    },
    {
      "constant": false,
      "inputs": [
        {
          "name": "_newOwnerCandidate",
          "type": "address"
        }
      ],
      "name": "transferOwnership",
      "outputs": [],
      "payable": false,
      "stateMutability": "nonpayable",
      "type": "function"
    },
    {
      "inputs": [
        {
          "name": "ifSuccessfulSendTo",
          "type": "address"
        },
        {
          "name": "addressOfTokenUsedAsReward",
          "type": "address"
        }
      ],
      "payable": false,
      "stateMutability": "nonpayable",
      "type": "constructor"
    },
    {
      "payable": true,
      "stateMutability": "payable",
      "type": "fallback"
    },
    {
      "anonymous": false,
      "inputs": [
        {
          "indexed": false,
          "name": "investor",
          "type": "address"
        },
        {
          "indexed": false,
          "name": "sum",
          "type": "uint256"
        },
        {
          "indexed": false,
          "name": "tokensCount",
          "type": "uint256"
        },
        {
          "indexed": false,
          "name": "discountTokens",
          "type": "uint256"
        }
      ],
      "name": "TokenPurchased",
      "type": "event"
    },
    {
      "anonymous": false,
      "inputs": [
        {
          "indexed": false,
          "name": "totalAmountRaised",
          "type": "uint256"
        }
      ],
      "name": "PreIcoLimitReached",
      "type": "event"
    },
    {
      "anonymous": false,
      "inputs": [
        {
          "indexed": false,
          "name": "totalAmountRaised",
          "type": "uint256"
        }
      ],
      "name": "SoftGoalReached",
      "type": "event"
    },
    {
      "anonymous": false,
      "inputs": [
        {
          "indexed": false,
          "name": "totalAmountRaised",
          "type": "uint256"
        }
      ],
      "name": "HardGoalReached",
      "type": "event"
    },
    {
      "anonymous": false,
      "inputs": [
        {
          "indexed": false,
          "name": "num",
          "type": "uint256"
        }
      ],
      "name": "Debug",
      "type": "event"
    },
    {
      "anonymous": false,
      "inputs": [
        {
          "indexed": true,
          "name": "_by",
          "type": "address"
        },
        {
          "indexed": true,
          "name": "_to",
          "type": "address"
        }
      ],
      "name": "OwnershipRequested",
      "type": "event"
    },
    {
      "anonymous": false,
      "inputs": [
        {
          "indexed": true,
          "name": "_from",
          "type": "address"
        },
        {
          "indexed": true,
          "name": "_to",
          "type": "address"
        }
      ],
      "name": "OwnershipTransferred",
      "type": "event"
    }
  ],
  "bytecode": "0x60606040526000600c60006101000a81548160ff0219169083151502179055506000600c60016101000a81548160ff0219169083151502179055506040805190810160405280604660ff168152602001604b60ff16815250600f9060026200006992919062000247565b50608060405190810160405280606460ff168152602001607860ff168152602001607d60ff168152602001608260ff168152506010906004620000ae929190620002e8565b503415620000bb57600080fd5b60405160408062004bda83398101604052808051906020019091908051906020019091905050336000806101000a81548173ffffffffffffffffffffffffffffffffffffffff021916908373ffffffffffffffffffffffffffffffffffffffff160217905550600073ffffffffffffffffffffffffffffffffffffffff168273ffffffffffffffffffffffffffffffffffffffff16141580156200018c5750600073ffffffffffffffffffffffffffffffffffffffff168173ffffffffffffffffffffffffffffffffffffffff1614155b15156200019857600080fd5b81600260006101000a81548173ffffffffffffffffffffffffffffffffffffffff021916908373ffffffffffffffffffffffffffffffffffffffff16021790555080600a60006101000a81548173ffffffffffffffffffffffffffffffffffffffff021916908373ffffffffffffffffffffffffffffffffffffffff1602179055506000600260146101000a81548160ff021916908360048111156200023a57fe5b02179055505050620003bc565b826002601f01602090048101928215620002d55791602002820160005b83821115620002a457835183826101000a81548160ff021916908360ff160217905550926020019260010160208160000104928301926001030262000264565b8015620002d35782816101000a81549060ff0219169055600101602081600001049283019260010302620002a4565b505b509050620002e4919062000389565b5090565b826004601f01602090048101928215620003765791602002820160005b838211156200034557835183826101000a81548160ff021916908360ff160217905550926020019260010160208160000104928301926001030262000305565b8015620003745782816101000a81549060ff021916905560010160208160000104928301926001030262000345565b505b50905062000385919062000389565b5090565b620003b991905b80821115620003b557600081816101000a81549060ff02191690555060010162000390565b5090565b90565b61480e80620003cc6000396000f3006060604052600436106101a1576000357c0100000000000000000000000000000000000000000000000000000000900463ffffffff1680631f2698ab146102e55780632005db6d1461030e57806327e235e31461036b5780632bd579fc146103b857806330b9af981461041e57806333b5b62e1461043357806338af3eed1461045c5780634839ac30146104b1578063497d42f3146104ee5780634a4e3bd51461052b57806351858e27146105405780635908984b146105555780635958611e1461059757806359be9cc0146105c05780636e66f6e91461061557806378e7058e1461066a57806379ba5097146106bf5780637b3e5e7b146106d45780638da5cb5b146106fd5780638f86f5ea1461075257806399b6f5a114610767578063a035b1fe146107bc578063a19b5493146107e5578063b5545a3c14610812578063bae6a69014610827578063c0ee0b8a14610865578063c118a9de146108ea578063c19d93fb14610921578063c306cb9014610958578063cea10af7146109ad578063d091b550146109d6578063dae392ee14610a2b578063f2fde38b14610a54575b600080600c60009054906101000a900460ff161580156102165750600160048111156101c957fe5b600260149054906101000a900460ff1660048111156101e457fe5b14806102155750600360048111156101f857fe5b600260149054906101000a900460ff16600481111561021357fe5b145b5b80156102255750600354600554105b151561023057600080fd5b60003411151561023f57600080fd5b349150610259600554600354610a8d90919063ffffffff16565b8211156102cf57610277600554600354610a8d90919063ffffffff16565b90503373ffffffffffffffffffffffffffffffffffffffff166108fc6102a68385610a8d90919063ffffffff16565b9081150290604051600060405180830381858888f1935050505015156102cb57600080fd5b8091505b6102d93383610aa6565b6102e1610f3d565b5050005b34156102f057600080fd5b6102f86110ca565b6040518082815260200191505060405180910390f35b341561031957600080fd5b6103696004808035906020019091908035906020019091908035906020019091908035906020019082018035906020019190919290803590602001908201803590602001919091929050506110d0565b005b341561037657600080fd5b6103a2600480803573ffffffffffffffffffffffffffffffffffffffff1690602001909190505061126c565b6040518082815260200191505060405180910390f35b34156103c357600080fd5b61041c600480803590602001909190803590602001909190803590602001909190803590602001909190803590602001908201803590602001919091929080359060200190820180359060200191909192905050611284565b005b341561042957600080fd5b610431611467565b005b341561043e57600080fd5b610446611580565b6040518082815260200191505060405180910390f35b341561046757600080fd5b61046f611586565b604051808273ffffffffffffffffffffffffffffffffffffffff1673ffffffffffffffffffffffffffffffffffffffff16815260200191505060405180910390f35b34156104bc57600080fd5b6104d260048080359060200190919050506115ac565b604051808260ff1660ff16815260200191505060405180910390f35b34156104f957600080fd5b61050f60048080359060200190919050506115d5565b604051808260ff1660ff16815260200191505060405180910390f35b341561053657600080fd5b61053e6115fe565b005b341561054b57600080fd5b610553611676565b005b341561056057600080fd5b610595600480803573ffffffffffffffffffffffffffffffffffffffff169060200190919080359060200190919050506116ee565b005b34156105a257600080fd5b6105aa6117eb565b6040518082815260200191505060405180910390f35b34156105cb57600080fd5b6105d36117f1565b604051808273ffffffffffffffffffffffffffffffffffffffff1673ffffffffffffffffffffffffffffffffffffffff16815260200191505060405180910390f35b341561062057600080fd5b610628611817565b604051808273ffffffffffffffffffffffffffffffffffffffff1673ffffffffffffffffffffffffffffffffffffffff16815260200191505060405180910390f35b341561067557600080fd5b61067d61183d565b604051808273ffffffffffffffffffffffffffffffffffffffff1673ffffffffffffffffffffffffffffffffffffffff16815260200191505060405180910390f35b34156106ca57600080fd5b6106d2611863565b005b34156106df57600080fd5b6106e76119fd565b6040518082815260200191505060405180910390f35b341561070857600080fd5b610710611a03565b604051808273ffffffffffffffffffffffffffffffffffffffff1673ffffffffffffffffffffffffffffffffffffffff16815260200191505060405180910390f35b341561075d57600080fd5b610765611a28565b005b341561077257600080fd5b61077a611b64565b604051808273ffffffffffffffffffffffffffffffffffffffff1673ffffffffffffffffffffffffffffffffffffffff16815260200191505060405180910390f35b34156107c757600080fd5b6107cf611e4d565b6040518082815260200191505060405180910390f35b34156107f057600080fd5b6107f8611e53565b604051808215151515815260200191505060405180910390f35b341561081d57600080fd5b610825611e92565b005b341561083257600080fd5b6108486004808035906020019091905050611fea565b604051808381526020018281526020019250505060405180910390f35b341561087057600080fd5b6108e8600480803573ffffffffffffffffffffffffffffffffffffffff1690602001909190803590602001909190803590602001908201803590602001908080601f0160208091040260200160405190810160405280939291908181526020018383808284378201915050505050509190505061201d565b005b34156108f557600080fd5b61090b600480803590602001909190505061207d565b6040518082815260200191505060405180910390f35b341561092c57600080fd5b61093461210a565b6040518082600481111561094457fe5b60ff16815260200191505060405180910390f35b341561096357600080fd5b61096b61211d565b604051808273ffffffffffffffffffffffffffffffffffffffff1673ffffffffffffffffffffffffffffffffffffffff16815260200191505060405180910390f35b34156109b857600080fd5b6109c0612406565b6040518082815260200191505060405180910390f35b34156109e157600080fd5b6109e961240c565b604051808273ffffffffffffffffffffffffffffffffffffffff1673ffffffffffffffffffffffffffffffffffffffff16815260200191505060405180910390f35b3415610a3657600080fd5b610a3e612432565b6040518082815260200191505060405180910390f35b3415610a5f57600080fd5b610a8b600480803573ffffffffffffffffffffffffffffffffffffffff16906020019091905050612438565b005b6000828211151515610a9b57fe5b818303905092915050565b6000806000806000806000610ac8600554600354610a8d90919063ffffffff16565b8811151515610ad657600080fd5b610af2600654610ae461258f565b610a8d90919063ffffffff16565b96506000955062093a8087101515610b1d57610b1a62093a808861259790919063ffffffff16565b95505b7f8a36f5a234186d446e36a7df36ace663a05a580d9bea2dd899c6dd76a075d5fa866040518082815260200191505060405180910390a160036004811115610b6157fe5b600260149054906101000a900460ff166004811115610b7c57fe5b1415610c1f57610bac600354610b9e60046005546125b290919063ffffffff16565b61259790919063ffffffff16565b935085841115610bba578395505b600486101515610bc957600395505b610c186064610c0a601089600481101515610be057fe5b602091828204019190069054906101000a900460ff1660ff166008546125b290919063ffffffff16565b61259790919063ffffffff16565b9450610c80565b600286101515610c2e57600195505b610c7d6064610c6f600f89600281101515610c4557fe5b602091828204019190069054906101000a900460ff1660ff166008546125b290919063ffffffff16565b61259790919063ffffffff16565b94505b7f8a36f5a234186d446e36a7df36ace663a05a580d9bea2dd899c6dd76a075d5fa856040518082815260200191505060405180910390a1610cca858961259790919063ffffffff16565b9250610cd58861207d565b9150610cfd6064610cef85856125b290919063ffffffff16565b61259790919063ffffffff16565b9050610d1281846125e590919063ffffffff16565b9250600a60009054906101000a900473ffffffffffffffffffffffffffffffffffffffff1673ffffffffffffffffffffffffffffffffffffffff1663a9059cbb8a856000604051602001526040518363ffffffff167c0100000000000000000000000000000000000000000000000000000000028152600401808373ffffffffffffffffffffffffffffffffffffffff1673ffffffffffffffffffffffffffffffffffffffff16815260200182815260200192505050602060405180830381600087803b1515610de157600080fd5b6102c65a03f11515610df257600080fd5b505050604051805190501515610e0757600080fd5b610e5988600b60008c73ffffffffffffffffffffffffffffffffffffffff1673ffffffffffffffffffffffffffffffffffffffff168152602001908152602001600020546125e590919063ffffffff16565b600b60008b73ffffffffffffffffffffffffffffffffffffffff1673ffffffffffffffffffffffffffffffffffffffff16815260200190815260200160002081905550610eb1886005546125e590919063ffffffff16565b6005819055507f2b0c4dfbf2e34a2292e9110d6ea90d7c78f54b3aebe3974d2db7197308f21ff889898584604051808573ffffffffffffffffffffffffffffffffffffffff1673ffffffffffffffffffffffffffffffffffffffff16815260200184815260200183815260200182815260200194505050505060405180910390a1505050505050505050565b60016004811115610f4a57fe5b600260149054906101000a900460ff166004811115610f6557fe5b1415610fda57600354600554101515610fd5577ff90a42045b12aef1cf33ae920628357639512bb8d1a943f2a8dda7d0b8088c206005546040518082815260200191505060405180910390a160028060146101000a81548160ff02191690836004811115610fcf57fe5b02179055505b6110c8565b600c60019054906101000a900460ff16158015610ffb575060045460055410155b15611055576001600c60016101000a81548160ff0219169083151502179055507f50c73740b6808484aba715b361644d9e478fabf4cbddf8e122992ca9b71444116005546040518082815260200191505060405180910390a15b6003546005541015156110c757426007819055507fa1f724757cf717a688dc12d91540a30b9e166a778344d628ffe6b30f8e88bde26005546040518082815260200191505060405180910390a16004600260146101000a81548160ff021916908360048111156110c157fe5b02179055505b5b565b60065481565b6000809054906101000a900473ffffffffffffffffffffffffffffffffffffffff1673ffffffffffffffffffffffffffffffffffffffff163373ffffffffffffffffffffffffffffffffffffffff1614151561112b57600080fd5b60008711801561113b5750600085115b801561116c57506000600481111561114f57fe5b600260149054906101000a900460ff16600481111561116a57fe5b145b801561117d57508181905084849050145b151561118857600080fd5b6111a3670de0b6b3a7640000886125b290919063ffffffff16565b6003819055506111c366038d7ea4c68000876125b290919063ffffffff16565b60098190555084600881905550611238848480806020026020016040519081016040528093929190818152602001838360200280828437820191505050505050838380806020026020016040519081016040528093929190818152602001838360200280828437820191505050505050612603565b6001600260146101000a81548160ff0219169083600481111561125757fe5b02179055504260068190555050505050505050565b600b6020528060005260406000206000915090505481565b6000809054906101000a900473ffffffffffffffffffffffffffffffffffffffff1673ffffffffffffffffffffffffffffffffffffffff163373ffffffffffffffffffffffffffffffffffffffff161415156112df57600080fd5b6000881180156112ef5750600087115b80156112fa57508787115b80156113065750600085115b801561133757506003600481111561131a57fe5b600260149054906101000a900460ff16600481111561133557fe5b105b801561134857508181905084849050145b151561135357600080fd5b61136e670de0b6b3a7640000896125b290919063ffffffff16565b60048190555061138f670de0b6b3a7640000886125b290919063ffffffff16565b6003819055506113af66038d7ea4c68000876125b290919063ffffffff16565b60098190555084600881905550600e60006113ca91906126c1565b611432848480806020026020016040519081016040528093929190818152602001838360200280828437820191505050505050838380806020026020016040519081016040528093929190818152602001838360200280828437820191505050505050612603565b6003600260146101000a81548160ff0219169083600481111561145157fe5b0217905550426006819055505050505050505050565b6000809054906101000a900473ffffffffffffffffffffffffffffffffffffffff1673ffffffffffffffffffffffffffffffffffffffff163373ffffffffffffffffffffffffffffffffffffffff161415156114c257600080fd5b600160048111156114cf57fe5b600260149054906101000a900460ff1660048111156114ea57fe5b14806114fa57506114f9611e53565b5b151561150557600080fd5b600260009054906101000a900473ffffffffffffffffffffffffffffffffffffffff1673ffffffffffffffffffffffffffffffffffffffff166108fc3073ffffffffffffffffffffffffffffffffffffffff16319081150290604051600060405180830381858888f19350505050151561157e57600080fd5b565b60095481565b600260009054906101000a900473ffffffffffffffffffffffffffffffffffffffff1681565b600f816002811015156115bb57fe5b60209182820401919006915054906101000a900460ff1681565b6010816004811015156115e457fe5b60209182820401919006915054906101000a900460ff1681565b6000809054906101000a900473ffffffffffffffffffffffffffffffffffffffff1673ffffffffffffffffffffffffffffffffffffffff163373ffffffffffffffffffffffffffffffffffffffff1614151561165957600080fd5b6000600c60006101000a81548160ff021916908315150217905550565b6000809054906101000a900473ffffffffffffffffffffffffffffffffffffffff1673ffffffffffffffffffffffffffffffffffffffff163373ffffffffffffffffffffffffffffffffffffffff161415156116d157600080fd5b6001600c60006101000a81548160ff021916908315150217905550565b6000809054906101000a900473ffffffffffffffffffffffffffffffffffffffff1673ffffffffffffffffffffffffffffffffffffffff163373ffffffffffffffffffffffffffffffffffffffff1614151561174957600080fd5b600c60009054906101000a900460ff161580156117bb57506001600481111561176e57fe5b600260149054906101000a900460ff16600481111561178957fe5b14806117ba57506003600481111561179d57fe5b600260149054906101000a900460ff1660048111156117b857fe5b145b5b80156117ca5750600354600554105b15156117d557600080fd5b6117df8282610aa6565b6117e7610f3d565b5050565b60075481565b600c60029054906101000a900473ffffffffffffffffffffffffffffffffffffffff1681565b600a60009054906101000a900473ffffffffffffffffffffffffffffffffffffffff1681565b600d60009054906101000a900473ffffffffffffffffffffffffffffffffffffffff1681565b600160009054906101000a900473ffffffffffffffffffffffffffffffffffffffff1673ffffffffffffffffffffffffffffffffffffffff163373ffffffffffffffffffffffffffffffffffffffff1614156119fb57600160009054906101000a900473ffffffffffffffffffffffffffffffffffffffff166000806101000a81548173ffffffffffffffffffffffffffffffffffffffff021916908373ffffffffffffffffffffffffffffffffffffffff1602179055506000600160006101000a81548173ffffffffffffffffffffffffffffffffffffffff021916908373ffffffffffffffffffffffffffffffffffffffff160217905550600160009054906101000a900473ffffffffffffffffffffffffffffffffffffffff1673ffffffffffffffffffffffffffffffffffffffff166000809054906101000a900473ffffffffffffffffffffffffffffffffffffffff1673ffffffffffffffffffffffffffffffffffffffff167f8be0079c531659141344cd1fd0a4f28419497f9722a3daafe3b4186f6b6457e060405160405180910390a35b565b60055481565b6000809054906101000a900473ffffffffffffffffffffffffffffffffffffffff1681565b6000809054906101000a900473ffffffffffffffffffffffffffffffffffffffff1673ffffffffffffffffffffffffffffffffffffffff163373ffffffffffffffffffffffffffffffffffffffff16141515611a8357600080fd5b60016004811115611a9057fe5b600260149054906101000a900460ff166004811115611aab57fe5b1480611adc575060036004811115611abf57fe5b600260149054906101000a900460ff166004811115611ada57fe5b145b1515611ae757600080fd5b60016004811115611af457fe5b600260149054906101000a900460ff166004811115611b0f57fe5b1415611b3d5760028060146101000a81548160ff02191690836004811115611b3357fe5b0217905550611b62565b6004600260146101000a81548160ff02191690836004811115611b5c57fe5b02179055505b565b60008060009054906101000a900473ffffffffffffffffffffffffffffffffffffffff1673ffffffffffffffffffffffffffffffffffffffff163373ffffffffffffffffffffffffffffffffffffffff16141515611bc157600080fd5b611bc9611e53565b1515611bd457600080fd5b30600a60009054906101000a900473ffffffffffffffffffffffffffffffffffffffff166000809054906101000a900473ffffffffffffffffffffffffffffffffffffffff16611c226126e5565b808473ffffffffffffffffffffffffffffffffffffffff1673ffffffffffffffffffffffffffffffffffffffff1681526020018373ffffffffffffffffffffffffffffffffffffffff1673ffffffffffffffffffffffffffffffffffffffff1681526020018273ffffffffffffffffffffffffffffffffffffffff1673ffffffffffffffffffffffffffffffffffffffff1681526020019350505050604051809103906000f0801515611cd457600080fd5b600d60006101000a81548173ffffffffffffffffffffffffffffffffffffffff021916908373ffffffffffffffffffffffffffffffffffffffff160217905550600a60009054906101000a900473ffffffffffffffffffffffffffffffffffffffff1673ffffffffffffffffffffffffffffffffffffffff1663a9059cbb600d60009054906101000a900473ffffffffffffffffffffffffffffffffffffffff16650b5e620f48006000604051602001526040518363ffffffff167c0100000000000000000000000000000000000000000000000000000000028152600401808373ffffffffffffffffffffffffffffffffffffffff1673ffffffffffffffffffffffffffffffffffffffff16815260200182815260200192505050602060405180830381600087803b1515611e0957600080fd5b6102c65a03f11515611e1a57600080fd5b5050506040518051905050600d60009054906101000a900473ffffffffffffffffffffffffffffffffffffffff16905090565b60085481565b6000600480811115611e6157fe5b600260149054906101000a900460ff166004811115611e7c57fe5b148015611e8d575060045460055410155b905090565b6000600480811115611ea057fe5b600260149054906101000a900460ff166004811115611ebb57fe5b148015611ecb5750600454600554105b1515611ed657600080fd5b600b60003373ffffffffffffffffffffffffffffffffffffffff1673ffffffffffffffffffffffffffffffffffffffff1681526020019081526020016000205490506000600b60003373ffffffffffffffffffffffffffffffffffffffff1673ffffffffffffffffffffffffffffffffffffffff168152602001908152602001600020819055506000811115611fe7573373ffffffffffffffffffffffffffffffffffffffff166108fc829081150290604051600060405180830381858888f193505050501515611fe65780600b60003373ffffffffffffffffffffffffffffffffffffffff1673ffffffffffffffffffffffffffffffffffffffff168152602001908152602001600020819055505b5b50565b600e81815481101515611ff957fe5b90600052602060002090600202016000915090508060000154908060010154905082565b6000809054906101000a900473ffffffffffffffffffffffffffffffffffffffff1673ffffffffffffffffffffffffffffffffffffffff168373ffffffffffffffffffffffffffffffffffffffff1614151561207857600080fd5b505050565b6000806000600e8054905011156120ff57600090505b600e805490508110156120fe57600e818154811015156120af57fe5b906000526020600020906002020160000154831015156120f157600e818154811015156120d857fe5b9060005260206000209060020201600101549150612104565b8080600101915050612093565b5b600091505b50919050565b600260149054906101000a900460ff1681565b60008060009054906101000a900473ffffffffffffffffffffffffffffffffffffffff1673ffffffffffffffffffffffffffffffffffffffff163373ffffffffffffffffffffffffffffffffffffffff1614151561217a57600080fd5b612182611e53565b151561218d57600080fd5b30600a60009054906101000a900473ffffffffffffffffffffffffffffffffffffffff166000809054906101000a900473ffffffffffffffffffffffffffffffffffffffff166121db6126f5565b808473ffffffffffffffffffffffffffffffffffffffff1673ffffffffffffffffffffffffffffffffffffffff1681526020018373ffffffffffffffffffffffffffffffffffffffff1673ffffffffffffffffffffffffffffffffffffffff1681526020018273ffffffffffffffffffffffffffffffffffffffff1673ffffffffffffffffffffffffffffffffffffffff1681526020019350505050604051809103906000f080151561228d57600080fd5b600c60026101000a81548173ffffffffffffffffffffffffffffffffffffffff021916908373ffffffffffffffffffffffffffffffffffffffff160217905550600a60009054906101000a900473ffffffffffffffffffffffffffffffffffffffff1673ffffffffffffffffffffffffffffffffffffffff1663a9059cbb600c60029054906101000a900473ffffffffffffffffffffffffffffffffffffffff16650b5e620f48006000604051602001526040518363ffffffff167c0100000000000000000000000000000000000000000000000000000000028152600401808373ffffffffffffffffffffffffffffffffffffffff1673ffffffffffffffffffffffffffffffffffffffff16815260200182815260200192505050602060405180830381600087803b15156123c257600080fd5b6102c65a03f115156123d357600080fd5b5050506040518051905050600c60029054906101000a900473ffffffffffffffffffffffffffffffffffffffff16905090565b60035481565b600160009054906101000a900473ffffffffffffffffffffffffffffffffffffffff1681565b60045481565b6000809054906101000a900473ffffffffffffffffffffffffffffffffffffffff1673ffffffffffffffffffffffffffffffffffffffff163373ffffffffffffffffffffffffffffffffffffffff1614151561249357600080fd5b600073ffffffffffffffffffffffffffffffffffffffff168173ffffffffffffffffffffffffffffffffffffffff16141515156124cf57600080fd5b80600160006101000a81548173ffffffffffffffffffffffffffffffffffffffff021916908373ffffffffffffffffffffffffffffffffffffffff160217905550600160009054906101000a900473ffffffffffffffffffffffffffffffffffffffff1673ffffffffffffffffffffffffffffffffffffffff163373ffffffffffffffffffffffffffffffffffffffff167f13a4b3bc0d5234dd3d87c9f1557d8faefa37986da62c36ba49309e2fb2c9aec460405160405180910390a350565b600042905090565b60008082848115156125a557fe5b0490508091505092915050565b600080828402905060008414806125d357508284828115156125d057fe5b04145b15156125db57fe5b8091505092915050565b60008082840190508381101515156125f957fe5b8091505092915050565b60008090505b82518110156126bc57600e80548060010182816126269190612705565b916000526020600020906002020160006040805190810160405280612673670de0b6b3a7640000898881518110151561265b57fe5b906020019060200201516125b290919063ffffffff16565b8152602001868681518110151561268657fe5b90602001906020020151815250909190915060008201518160000155602082015181600101555050508080600101915050612609565b505050565b50805460008255600202906000526020600020908101906126e29190612737565b50565b604051610fb18061276783390190565b6040516110cb8061371883390190565b815481835581811511612732576002028160020283600052602060002091820191016127319190612737565b5b505050565b61276391905b8082111561275f5760008082016000905560018201600090555060020161273d565b5090565b9056006060604052341561000f57600080fd5b604051606080610fb183398101604052808051906020019091908051906020019091908051906020019091905050336000806101000a81548173ffffffffffffffffffffffffffffffffffffffff021916908373ffffffffffffffffffffffffffffffffffffffff16021790555082600260006101000a81548173ffffffffffffffffffffffffffffffffffffffff021916908373ffffffffffffffffffffffffffffffffffffffff16021790555081600360006101000a81548173ffffffffffffffffffffffffffffffffffffffff021916908373ffffffffffffffffffffffffffffffffffffffff160217905550806000806101000a81548173ffffffffffffffffffffffffffffffffffffffff021916908373ffffffffffffffffffffffffffffffffffffffff160217905550505050610e60806101516000396000f300606060405260043610610083576000357c0100000000000000000000000000000000000000000000000000000000900463ffffffff16806379ba5097146100885780638433acd11461009d5780638da5cb5b146100b2578063c0ee0b8a14610107578063d091b5501461018c578063df8de3e7146101e1578063f2fde38b1461021a575b600080fd5b341561009357600080fd5b61009b610253565b005b34156100a857600080fd5b6100b06103ed565b005b34156100bd57600080fd5b6100c56107c1565b604051808273ffffffffffffffffffffffffffffffffffffffff1673ffffffffffffffffffffffffffffffffffffffff16815260200191505060405180910390f35b341561011257600080fd5b61018a600480803573ffffffffffffffffffffffffffffffffffffffff1690602001909190803590602001909190803590602001908201803590602001908080601f016020809104026020016040519081016040528093929190818152602001838380828437820191505050505050919050506107e6565b005b341561019757600080fd5b61019f61089e565b604051808273ffffffffffffffffffffffffffffffffffffffff1673ffffffffffffffffffffffffffffffffffffffff16815260200191505060405180910390f35b34156101ec57600080fd5b610218600480803573ffffffffffffffffffffffffffffffffffffffff169060200190919050506108c4565b005b341561022557600080fd5b610251600480803573ffffffffffffffffffffffffffffffffffffffff16906020019091905050610cb7565b005b600160009054906101000a900473ffffffffffffffffffffffffffffffffffffffff1673ffffffffffffffffffffffffffffffffffffffff163373ffffffffffffffffffffffffffffffffffffffff1614156103eb57600160009054906101000a900473ffffffffffffffffffffffffffffffffffffffff166000806101000a81548173ffffffffffffffffffffffffffffffffffffffff021916908373ffffffffffffffffffffffffffffffffffffffff1602179055506000600160006101000a81548173ffffffffffffffffffffffffffffffffffffffff021916908373ffffffffffffffffffffffffffffffffffffffff160217905550600160009054906101000a900473ffffffffffffffffffffffffffffffffffffffff1673ffffffffffffffffffffffffffffffffffffffff166000809054906101000a900473ffffffffffffffffffffffffffffffffffffffff1673ffffffffffffffffffffffffffffffffffffffff167f8be0079c531659141344cd1fd0a4f28419497f9722a3daafe3b4186f6b6457e060405160405180910390a35b565b6000806000809054906101000a900473ffffffffffffffffffffffffffffffffffffffff1673ffffffffffffffffffffffffffffffffffffffff163373ffffffffffffffffffffffffffffffffffffffff1614151561044b57600080fd5b600360009054906101000a900473ffffffffffffffffffffffffffffffffffffffff1673ffffffffffffffffffffffffffffffffffffffff166370a08231306000604051602001526040518263ffffffff167c0100000000000000000000000000000000000000000000000000000000028152600401808273ffffffffffffffffffffffffffffffffffffffff1673ffffffffffffffffffffffffffffffffffffffff168152602001915050602060405180830381600087803b151561051057600080fd5b6102c65a03f1151561052157600080fd5b50505060405180519050915060008211151561053c57600080fd5b600260009054906101000a900473ffffffffffffffffffffffffffffffffffffffff1673ffffffffffffffffffffffffffffffffffffffff16635958611e6000604051602001526040518163ffffffff167c0100000000000000000000000000000000000000000000000000000000028152600401602060405180830381600087803b15156105ca57600080fd5b6102c65a03f115156105db57600080fd5b50505060405180519050905060008111801561061257506106086212750082610e0e90919063ffffffff16565b610610610e2c565b115b151561061d57600080fd5b600360009054906101000a900473ffffffffffffffffffffffffffffffffffffffff1673ffffffffffffffffffffffffffffffffffffffff1663a9059cbb6000809054906101000a900473ffffffffffffffffffffffffffffffffffffffff16846000604051602001526040518363ffffffff167c0100000000000000000000000000000000000000000000000000000000028152600401808373ffffffffffffffffffffffffffffffffffffffff1673ffffffffffffffffffffffffffffffffffffffff16815260200182815260200192505050602060405180830381600087803b151561070b57600080fd5b6102c65a03f1151561071c57600080fd5b50505060405180519050151561073157600080fd5b7f6352c5382c4a4578e712449ca65e83cdb392d045dfcf1cad9615189db2da244b6000809054906101000a900473ffffffffffffffffffffffffffffffffffffffff1683604051808373ffffffffffffffffffffffffffffffffffffffff1673ffffffffffffffffffffffffffffffffffffffff1681526020018281526020019250505060405180910390a15050565b6000809054906101000a900473ffffffffffffffffffffffffffffffffffffffff1681565b6000809054906101000a900473ffffffffffffffffffffffffffffffffffffffff1673ffffffffffffffffffffffffffffffffffffffff168373ffffffffffffffffffffffffffffffffffffffff16148061088e5750600260009054906101000a900473ffffffffffffffffffffffffffffffffffffffff1673ffffffffffffffffffffffffffffffffffffffff168373ffffffffffffffffffffffffffffffffffffffff16145b151561089957600080fd5b505050565b600160009054906101000a900473ffffffffffffffffffffffffffffffffffffffff1681565b60008060009054906101000a900473ffffffffffffffffffffffffffffffffffffffff1673ffffffffffffffffffffffffffffffffffffffff163373ffffffffffffffffffffffffffffffffffffffff1614151561092157600080fd5b600360009054906101000a900473ffffffffffffffffffffffffffffffffffffffff1673ffffffffffffffffffffffffffffffffffffffff168273ffffffffffffffffffffffffffffffffffffffff161415151561097e57600080fd5b60008273ffffffffffffffffffffffffffffffffffffffff161415610a1a576000809054906101000a900473ffffffffffffffffffffffffffffffffffffffff1673ffffffffffffffffffffffffffffffffffffffff166108fc3073ffffffffffffffffffffffffffffffffffffffff16319081150290604051600060405180830381858888f193505050501515610a1557600080fd5b610cb3565b81600360006101000a81548173ffffffffffffffffffffffffffffffffffffffff021916908373ffffffffffffffffffffffffffffffffffffffff160217905550600360009054906101000a900473ffffffffffffffffffffffffffffffffffffffff1673ffffffffffffffffffffffffffffffffffffffff166370a08231306000604051602001526040518263ffffffff167c0100000000000000000000000000000000000000000000000000000000028152600401808273ffffffffffffffffffffffffffffffffffffffff1673ffffffffffffffffffffffffffffffffffffffff168152602001915050602060405180830381600087803b1515610b2057600080fd5b6102c65a03f11515610b3157600080fd5b505050604051805190509050600360009054906101000a900473ffffffffffffffffffffffffffffffffffffffff1673ffffffffffffffffffffffffffffffffffffffff1663a9059cbb6000809054906101000a900473ffffffffffffffffffffffffffffffffffffffff16836000604051602001526040518363ffffffff167c0100000000000000000000000000000000000000000000000000000000028152600401808373ffffffffffffffffffffffffffffffffffffffff1673ffffffffffffffffffffffffffffffffffffffff16815260200182815260200192505050602060405180830381600087803b1515610c2b57600080fd5b6102c65a03f11515610c3c57600080fd5b50505060405180519050507fe9aa550fd75d0d28e07fa9dd67d3ae705678776f6c4a75abd09534f93e7d79078282604051808373ffffffffffffffffffffffffffffffffffffffff1673ffffffffffffffffffffffffffffffffffffffff1681526020018281526020019250505060405180910390a15b5050565b6000809054906101000a900473ffffffffffffffffffffffffffffffffffffffff1673ffffffffffffffffffffffffffffffffffffffff163373ffffffffffffffffffffffffffffffffffffffff16141515610d1257600080fd5b600073ffffffffffffffffffffffffffffffffffffffff168173ffffffffffffffffffffffffffffffffffffffff1614151515610d4e57600080fd5b80600160006101000a81548173ffffffffffffffffffffffffffffffffffffffff021916908373ffffffffffffffffffffffffffffffffffffffff160217905550600160009054906101000a900473ffffffffffffffffffffffffffffffffffffffff1673ffffffffffffffffffffffffffffffffffffffff163373ffffffffffffffffffffffffffffffffffffffff167f13a4b3bc0d5234dd3d87c9f1557d8faefa37986da62c36ba49309e2fb2c9aec460405160405180910390a350565b6000808284019050838110151515610e2257fe5b8091505092915050565b6000429050905600a165627a7a72305820b3734d0485a9c386b1387d48c26233bd45aeb0af86bd53049fdb82c38fdb6fec00296060604052341561000f57600080fd5b6040516060806110cb83398101604052808051906020019091908051906020019091908051906020019091905050336000806101000a81548173ffffffffffffffffffffffffffffffffffffffff021916908373ffffffffffffffffffffffffffffffffffffffff16021790555082600360006101000a81548173ffffffffffffffffffffffffffffffffffffffff021916908373ffffffffffffffffffffffffffffffffffffffff16021790555081600460006101000a81548173ffffffffffffffffffffffffffffffffffffffff021916908373ffffffffffffffffffffffffffffffffffffffff160217905550806000806101000a81548173ffffffffffffffffffffffffffffffffffffffff021916908373ffffffffffffffffffffffffffffffffffffffff160217905550505050610f7a806101516000396000f300606060405260043610610083576000357c0100000000000000000000000000000000000000000000000000000000900463ffffffff16806379ba5097146100885780638433acd11461009d5780638da5cb5b146100b2578063c0ee0b8a14610107578063d091b5501461018c578063df8de3e7146101e1578063f2fde38b1461021a575b600080fd5b341561009357600080fd5b61009b610253565b005b34156100a857600080fd5b6100b06103ed565b005b34156100bd57600080fd5b6100c5610855565b604051808273ffffffffffffffffffffffffffffffffffffffff1673ffffffffffffffffffffffffffffffffffffffff16815260200191505060405180910390f35b341561011257600080fd5b61018a600480803573ffffffffffffffffffffffffffffffffffffffff1690602001909190803590602001909190803590602001908201803590602001908080601f0160208091040260200160405190810160405280939291908181526020018383808284378201915050505050509190505061087a565b005b341561019757600080fd5b61019f610932565b604051808273ffffffffffffffffffffffffffffffffffffffff1673ffffffffffffffffffffffffffffffffffffffff16815260200191505060405180910390f35b34156101ec57600080fd5b610218600480803573ffffffffffffffffffffffffffffffffffffffff16906020019091905050610958565b005b341561022557600080fd5b610251600480803573ffffffffffffffffffffffffffffffffffffffff16906020019091905050610d4b565b005b600160009054906101000a900473ffffffffffffffffffffffffffffffffffffffff1673ffffffffffffffffffffffffffffffffffffffff163373ffffffffffffffffffffffffffffffffffffffff1614156103eb57600160009054906101000a900473ffffffffffffffffffffffffffffffffffffffff166000806101000a81548173ffffffffffffffffffffffffffffffffffffffff021916908373ffffffffffffffffffffffffffffffffffffffff1602179055506000600160006101000a81548173ffffffffffffffffffffffffffffffffffffffff021916908373ffffffffffffffffffffffffffffffffffffffff160217905550600160009054906101000a900473ffffffffffffffffffffffffffffffffffffffff1673ffffffffffffffffffffffffffffffffffffffff166000809054906101000a900473ffffffffffffffffffffffffffffffffffffffff1673ffffffffffffffffffffffffffffffffffffffff167f8be0079c531659141344cd1fd0a4f28419497f9722a3daafe3b4186f6b6457e060405160405180910390a35b565b6000806000806000809054906101000a900473ffffffffffffffffffffffffffffffffffffffff1673ffffffffffffffffffffffffffffffffffffffff163373ffffffffffffffffffffffffffffffffffffffff1614151561044e57600080fd5b600460009054906101000a900473ffffffffffffffffffffffffffffffffffffffff1673ffffffffffffffffffffffffffffffffffffffff166370a08231306000604051602001526040518263ffffffff167c0100000000000000000000000000000000000000000000000000000000028152600401808273ffffffffffffffffffffffffffffffffffffffff1673ffffffffffffffffffffffffffffffffffffffff168152602001915050602060405180830381600087803b151561051357600080fd5b6102c65a03f1151561052457600080fd5b50505060405180519050935061054584600254610ea290919063ffffffff16565b9250600360009054906101000a900473ffffffffffffffffffffffffffffffffffffffff1673ffffffffffffffffffffffffffffffffffffffff16635958611e6000604051602001526040518163ffffffff167c0100000000000000000000000000000000000000000000000000000000028152600401602060405180830381600087803b15156105d557600080fd5b6102c65a03f115156105e657600080fd5b50505060405180519050915060008211801561061d57506106136212750083610ea290919063ffffffff16565b61061b610ec0565b115b151561062857600080fd5b61066f610635600c610ec8565b61066161065285610644610ec0565b610ee790919063ffffffff16565b86610f0090919063ffffffff16565b610f3390919063ffffffff16565b905061068660025482610ee790919063ffffffff16565b905083811115610694578390505b6106a981600254610ea290919063ffffffff16565b600281905550600460009054906101000a900473ffffffffffffffffffffffffffffffffffffffff1673ffffffffffffffffffffffffffffffffffffffff1663a9059cbb6000809054906101000a900473ffffffffffffffffffffffffffffffffffffffff16836000604051602001526040518363ffffffff167c0100000000000000000000000000000000000000000000000000000000028152600401808373ffffffffffffffffffffffffffffffffffffffff1673ffffffffffffffffffffffffffffffffffffffff16815260200182815260200192505050602060405180830381600087803b151561079d57600080fd5b6102c65a03f115156107ae57600080fd5b5050506040518051905015156107c357600080fd5b7f6352c5382c4a4578e712449ca65e83cdb392d045dfcf1cad9615189db2da244b6000809054906101000a900473ffffffffffffffffffffffffffffffffffffffff1682604051808373ffffffffffffffffffffffffffffffffffffffff1673ffffffffffffffffffffffffffffffffffffffff1681526020018281526020019250505060405180910390a150505050565b6000809054906101000a900473ffffffffffffffffffffffffffffffffffffffff1681565b6000809054906101000a900473ffffffffffffffffffffffffffffffffffffffff1673ffffffffffffffffffffffffffffffffffffffff168373ffffffffffffffffffffffffffffffffffffffff1614806109225750600360009054906101000a900473ffffffffffffffffffffffffffffffffffffffff1673ffffffffffffffffffffffffffffffffffffffff168373ffffffffffffffffffffffffffffffffffffffff16145b151561092d57600080fd5b505050565b600160009054906101000a900473ffffffffffffffffffffffffffffffffffffffff1681565b60008060009054906101000a900473ffffffffffffffffffffffffffffffffffffffff1673ffffffffffffffffffffffffffffffffffffffff163373ffffffffffffffffffffffffffffffffffffffff161415156109b557600080fd5b600460009054906101000a900473ffffffffffffffffffffffffffffffffffffffff1673ffffffffffffffffffffffffffffffffffffffff168273ffffffffffffffffffffffffffffffffffffffff1614151515610a1257600080fd5b60008273ffffffffffffffffffffffffffffffffffffffff161415610aae576000809054906101000a900473ffffffffffffffffffffffffffffffffffffffff1673ffffffffffffffffffffffffffffffffffffffff166108fc3073ffffffffffffffffffffffffffffffffffffffff16319081150290604051600060405180830381858888f193505050501515610aa957600080fd5b610d47565b81600460006101000a81548173ffffffffffffffffffffffffffffffffffffffff021916908373ffffffffffffffffffffffffffffffffffffffff160217905550600460009054906101000a900473ffffffffffffffffffffffffffffffffffffffff1673ffffffffffffffffffffffffffffffffffffffff166370a08231306000604051602001526040518263ffffffff167c0100000000000000000000000000000000000000000000000000000000028152600401808273ffffffffffffffffffffffffffffffffffffffff1673ffffffffffffffffffffffffffffffffffffffff168152602001915050602060405180830381600087803b1515610bb457600080fd5b6102c65a03f11515610bc557600080fd5b505050604051805190509050600460009054906101000a900473ffffffffffffffffffffffffffffffffffffffff1673ffffffffffffffffffffffffffffffffffffffff1663a9059cbb6000809054906101000a900473ffffffffffffffffffffffffffffffffffffffff16836000604051602001526040518363ffffffff167c0100000000000000000000000000000000000000000000000000000000028152600401808373ffffffffffffffffffffffffffffffffffffffff1673ffffffffffffffffffffffffffffffffffffffff16815260200182815260200192505050602060405180830381600087803b1515610cbf57600080fd5b6102c65a03f11515610cd057600080fd5b50505060405180519050507fe9aa550fd75d0d28e07fa9dd67d3ae705678776f6c4a75abd09534f93e7d79078282604051808373ffffffffffffffffffffffffffffffffffffffff1673ffffffffffffffffffffffffffffffffffffffff1681526020018281526020019250505060405180910390a15b5050565b6000809054906101000a900473ffffffffffffffffffffffffffffffffffffffff1673ffffffffffffffffffffffffffffffffffffffff163373ffffffffffffffffffffffffffffffffffffffff16141515610da657600080fd5b600073ffffffffffffffffffffffffffffffffffffffff168173ffffffffffffffffffffffffffffffffffffffff1614151515610de257600080fd5b80600160006101000a81548173ffffffffffffffffffffffffffffffffffffffff021916908373ffffffffffffffffffffffffffffffffffffffff160217905550600160009054906101000a900473ffffffffffffffffffffffffffffffffffffffff1673ffffffffffffffffffffffffffffffffffffffff163373ffffffffffffffffffffffffffffffffffffffff167f13a4b3bc0d5234dd3d87c9f1557d8faefa37986da62c36ba49309e2fb2c9aec460405160405180910390a350565b6000808284019050838110151515610eb657fe5b8091505092915050565b600042905090565b6000610ee062278d0083610f0090919063ffffffff16565b9050919050565b6000828211151515610ef557fe5b818303905092915050565b60008082840290506000841480610f215750828482811515610f1e57fe5b04145b1515610f2957fe5b8091505092915050565b6000808284811515610f4157fe5b04905080915050929150505600a165627a7a7230582099fd7f3b1dea8080da94e3a630d4c61f733c8650e290dda4af2ede4444e1aed50029a165627a7a7230582000cdf122895bd746030193ffabe6e15329388c1da33392d3a19d5d7d308b3edd0029",
  "source": "pragma solidity ^0.4.18;\r\n\r\nimport './Ownable.sol';\r\nimport \"./SafeMath.sol\";\r\nimport \"./interface/ERC223_interface.sol\";\r\nimport \"./DevTokensHolder.sol\";\r\nimport \"./AdvisorsTokensHolder.sol\";\r\n\r\ncontract GenericCrowdsale is Ownable {\r\n    using SafeMath for uint256;\r\n\r\n    //Crowrdsale states\r\n    enum State { Initialized, PreIco, PreIcoFinished, Ico, IcoFinished}\r\n\r\n    struct Discount {\r\n        uint256 amount;\r\n        uint256 value;\r\n    }\r\n\r\n    //ether trasfered to\r\n    address public beneficiary;\r\n    //Crowrdsale state\r\n    State public state;\r\n    //Hard goal in Wei\r\n    uint public hardFundingGoal;\r\n    //soft goal in Wei\r\n    uint public softFundingGoal;\r\n    //gathered Ether amount in Wei\r\n    uint public amountRaised;\r\n    //ICO/PreICO start timestamp in seconds\r\n    uint public started;\r\n    //Crowdsale finish time\r\n    uint public finishTime;\r\n    //price for 1 token in Wei\r\n    uint public price;\r\n    //minimum purchase value in Wei\r\n    uint public minPurchase;\r\n    //Token cantract\r\n    ERC223 public tokenReward;\r\n    //Wei balances for refund if ICO failed\r\n    mapping(address => uint256) public balances;\r\n\r\n    //Emergency stop sell\r\n    bool emergencyPaused = false;\r\n    //Soft cap reached\r\n    bool softCapReached = false;\r\n    //dev holder\r\n    DevTokensHolder public devTokensHolder;\r\n    //advisors holder\r\n    AdvisorsTokensHolder public advisorsTokensHolder;\r\n    \r\n    //Disconts\r\n    Discount[] public discounts;\r\n\r\n    //price overhead for next stages\r\n    uint8[2] public preIcoTokenPrice = [70,75];\r\n    //price overhead for next stages\r\n    uint8[4] public icoTokenPrice = [100,120,125,130];\r\n\r\n    event TokenPurchased(address investor, uint sum, uint tokensCount, uint discountTokens);\r\n    event PreIcoLimitReached(uint totalAmountRaised);\r\n    event SoftGoalReached(uint totalAmountRaised);\r\n    event HardGoalReached(uint totalAmountRaised);\r\n    event Debug(uint num);\r\n\r\n    //Sale is active\r\n    modifier sellActive() { \r\n        require(\r\n            !emergencyPaused \r\n            && (state == State.PreIco || state == State.Ico)\r\n            && amountRaised < hardFundingGoal\r\n        );\r\n    _; }\r\n    //Soft cap not reached\r\n    modifier goalNotReached() { require(state == State.IcoFinished && amountRaised < softFundingGoal); _; }\r\n\r\n    /**\r\n     * Constrctor function\r\n     */\r\n    function GenericCrowdsale(\r\n        address ifSuccessfulSendTo,\r\n        address addressOfTokenUsedAsReward\r\n    ) public {\r\n        require(ifSuccessfulSendTo != address(0) \r\n            && addressOfTokenUsedAsReward != address(0));\r\n        beneficiary = ifSuccessfulSendTo;\r\n        tokenReward = ERC223(addressOfTokenUsedAsReward);\r\n        state = State.Initialized;\r\n    }\r\n\r\n    function tokenFallback(\r\n        address _from, \r\n        uint _value, \r\n        bytes _data\r\n    ) \r\n        public \r\n        view \r\n    {\r\n        require(_from == owner);\r\n    }\r\n\r\n    /**\r\n     * Start PreICO\r\n     */\r\n    function preIco(\r\n        uint hardFundingGoalInEthers,\r\n        uint minPurchaseInFinney,\r\n        uint costOfEachToken,\r\n        uint256[] discountEthers,\r\n        uint256[] discountValues\r\n    ) \r\n        external \r\n        onlyOwner \r\n    {\r\n        require(hardFundingGoalInEthers > 0\r\n            && costOfEachToken > 0\r\n            && state == State.Initialized\r\n            && discountEthers.length == discountValues.length);\r\n\r\n        hardFundingGoal = hardFundingGoalInEthers.mul(1 ether);\r\n        minPurchase = minPurchaseInFinney.mul(1 finney);\r\n        price = costOfEachToken;\r\n        initDiscounts(discountEthers, discountValues);\r\n        state = State.PreIco;\r\n        started = now;\r\n    }\r\n\r\n    /**\r\n     * Start ICO\r\n     */\r\n    function ico(\r\n        uint softFundingGoalInEthers,\r\n        uint hardFundingGoalInEthers,\r\n        uint minPurchaseInFinney,\r\n        uint costOfEachToken,\r\n        uint256[] discountEthers,\r\n        uint256[] discountValues\r\n    ) \r\n        external\r\n        onlyOwner\r\n    {\r\n        require(softFundingGoalInEthers > 0\r\n            && hardFundingGoalInEthers > 0\r\n            && hardFundingGoalInEthers > softFundingGoalInEthers\r\n            && costOfEachToken > 0\r\n            && state < State.Ico\r\n            && discountEthers.length == discountValues.length);\r\n\r\n        softFundingGoal = softFundingGoalInEthers.mul(1 ether);\r\n        hardFundingGoal = hardFundingGoalInEthers.mul(1 ether);\r\n        minPurchase = minPurchaseInFinney.mul(1 finney);\r\n        price = costOfEachToken;\r\n        delete discounts;\r\n        initDiscounts(discountEthers, discountValues);\r\n        state = State.Ico;\r\n        started = now;\r\n    }\r\n\r\n    /**\r\n     * Finish ICO / PreICO\r\n     */\r\n    function finishSale() external onlyOwner {\r\n        require(state == State.PreIco || state == State.Ico);\r\n        \r\n        if (state == State.PreIco)\r\n            state = State.PreIcoFinished;\r\n        else\r\n            state = State.IcoFinished;\r\n    }\r\n\r\n    /**\r\n     * Admin can pause token sell\r\n     */\r\n    function emergencyPause() external onlyOwner {\r\n        emergencyPaused = true;\r\n    }\r\n\r\n    /**\r\n     * Admin can unpause token sell\r\n     */\r\n    function emergencyUnpause() external onlyOwner {\r\n        emergencyPaused = false;\r\n    }\r\n\r\n    /**\r\n     * Transfer dev tokens to vesting wallet\r\n     */\r\n    function sendDevTokens() external onlyOwner returns(address) {\r\n        require(successed());\r\n\r\n        devTokensHolder = new DevTokensHolder(address(this), address(tokenReward), owner);\r\n        tokenReward.transfer(address(devTokensHolder), 12500 * 1e9);\r\n        return address(devTokensHolder);\r\n    }\r\n\r\n    /**\r\n     * Transfer dev tokens to vesting wallet\r\n     */\r\n    function sendAdvisorsTokens() external onlyOwner returns(address) {\r\n        require(successed());\r\n\r\n        advisorsTokensHolder = new AdvisorsTokensHolder(address(this), address(tokenReward), owner);\r\n        tokenReward.transfer(address(advisorsTokensHolder), 12500 * 1e9);\r\n        return address(advisorsTokensHolder);\r\n    }\r\n\r\n    /**\r\n     * Admin can withdraw ether beneficiary address\r\n     */\r\n    function withdrawFunding() external onlyOwner {\r\n        require((state == State.PreIco || successed()));\r\n        beneficiary.transfer(this.balance);\r\n    }\r\n\r\n    /**\r\n     * Different coins purchase\r\n     */\r\n    function foreignPurchase(address user, uint256 amount)\r\n        external\r\n        onlyOwner\r\n        sellActive\r\n    {\r\n        buyTokens(user, amount);\r\n        checkGoals();\r\n    }\r\n\r\n    /**\r\n     * Claim refund ether in soft goal not reached \r\n     */\r\n    function claimRefund() \r\n        external \r\n        goalNotReached \r\n    {\r\n        uint256 amount = balances[msg.sender];\r\n        balances[msg.sender] = 0;\r\n        if (amount > 0){\r\n            if (!msg.sender.send(amount)) {\r\n                balances[msg.sender] = amount;\r\n            }\r\n        }\r\n    }\r\n\r\n    /**\r\n     * Payment transaction\r\n     */\r\n    function () \r\n        external \r\n        payable \r\n        sellActive\r\n    {\r\n        require(msg.value > 0);\r\n        uint amount = msg.value;\r\n        if (amount > hardFundingGoal.sub(amountRaised)) {\r\n            uint availableAmount = hardFundingGoal.sub(amountRaised);\r\n            msg.sender.transfer(amount.sub(availableAmount));\r\n            amount = availableAmount;\r\n        }\r\n\r\n        buyTokens(msg.sender,  amount);\r\n        checkGoals();\r\n    }\r\n\r\n    /**\r\n     * Transfer tokens to user\r\n     */\r\n    function buyTokens(\r\n        address user,\r\n        uint256 amount\r\n    ) internal {\r\n    \trequire(amount <= hardFundingGoal.sub(amountRaised));\r\n\r\n        uint256 passedSeconds = getTime().sub(started);\r\n        uint256 week = 0;\r\n        if (passedSeconds >= 604800){\r\n            week = passedSeconds.div(604800);\r\n        }\r\n        Debug(week);\r\n\r\n        uint256 tokenPrice;\r\n        if (state == State.Ico){\r\n            uint256 cup = amountRaised.mul(4).div(hardFundingGoal);\r\n            if (cup > week)\r\n                week = cup;\r\n            if (week >= 4)\r\n                 week = 3;\r\n            tokenPrice = price.mul(icoTokenPrice[week]).div(100);\r\n        } else {\r\n            if (week >= 2)\r\n                 week = 1;\r\n            tokenPrice = price.mul(preIcoTokenPrice[week]).div(100);\r\n        }\r\n\r\n        Debug(tokenPrice);\r\n\r\n        uint256 count = amount.div(tokenPrice);\r\n        uint256 discount = getDiscountOf(amount);\r\n        uint256 discountBonus = discount.mul(count).div(100);\r\n        count = count.add(discountBonus);\r\n\r\n        require(tokenReward.transfer(user, count));\r\n        balances[user] = balances[user].add(amount);\r\n        amountRaised = amountRaised.add(amount);\r\n        TokenPurchased(user, amount, count, discountBonus);\r\n    }\r\n\r\n    /**\r\n     * ICO is finished successfully\r\n     */\r\n    function successed() \r\n        public \r\n        view \r\n        returns(bool) \r\n    {\r\n        return state == State.IcoFinished && amountRaised >= softFundingGoal;\r\n    }\r\n\r\n    /**\r\n     * Define distount percents for different token amounts\r\n     */\r\n    function initDiscounts(\r\n        uint256[] discountEthers,\r\n        uint256[] discountValues\r\n    ) internal {\r\n        for (uint256 i = 0; i < discountEthers.length; i++) {\r\n            discounts.push(Discount(discountEthers[i].mul(1 ether), discountValues[i]));\r\n        }\r\n    }\r\n\r\n    /**\r\n     * Get discount percent for number of tokens\r\n     */\r\n    function getDiscountOf(\r\n        uint256 _amount\r\n    )\r\n        public\r\n        view\r\n        returns (uint256)\r\n    {\r\n        if (discounts.length > 0)\r\n            for (uint256 i = 0; i < discounts.length; i++) {\r\n                if (_amount >= discounts[i].amount) {\r\n                    return discounts[i].value;\r\n                }\r\n            }\r\n        return 0;\r\n    }\r\n\r\n    /**\r\n     * Check ICO goals achievement\r\n     */\r\n    function checkGoals() internal {\r\n        if (state == State.PreIco) {\r\n            if (amountRaised >= hardFundingGoal) {\r\n                PreIcoLimitReached(amountRaised);\r\n                state = State.PreIcoFinished;\r\n            }\r\n        } else {\r\n            if (!softCapReached && amountRaised >= softFundingGoal){\r\n                softCapReached = true;\r\n                SoftGoalReached(amountRaised);\r\n            }\r\n            if (amountRaised >= hardFundingGoal) {\r\n                finishTime = now;\r\n                HardGoalReached(amountRaised);\r\n                state = State.IcoFinished;\r\n            }\r\n        }\r\n    }\r\n\r\n    function getTime() internal view returns (uint) {\r\n        return now;\r\n    }\r\n}",
  "sourcePath": "C:\\www\\blockchain\\MyDFS\\contracts\\GenericCrowdsale.sol",
  "compiler": {
    "name": "solc",
    "version": "0.4.18+commit.9cf6e910.Emscripten.clang"
  },
  "schemaVersion": "1.0.1",
  "updatedAt": "2018-03-12T10:58:24.466Z"
}